:1000000027C1000056C1000054C1000052C10000C9
:1000100050C100004EC100004CC100004AC10000A8
:1000200048C1000046C1000044C1000042C10000B8
:1000300040C100003EC100003CC100003AC10000C8
:1000400038C1000036C1000034C1000032C10000D8
:1000500030C100002EC100002CC100000C9412130E
:1000600028C100000C944B160C94221622C10000EB
:1000700020C100001EC100001CC100001AC1000008
:1000800018C1000016C1000014C1000012C1000018
:1000900010C100000EC100000CC100000AC1000028
:1000A00008C1000006C1000004C1000002C1000038
:1000B00000C10000FEC00000FCC00000FAC000004B
:1000C000F8C00000F6C00000F4C00000F2C000005C
:1000D000F0C00000EEC00000ECC00000EAC000006C
:1000E000E8C00000D506DA06DF06E906F3066C076D
:1000F000FD0605070D07170721072B073A074407D9
:100100006C074E0758076207E620E920D820DC205C
:10011000E2202021ED20F120F720FB20FF20052107
:1001200009210D212021132117211B21000022006C
:10013000250028002B002E003100340002010000B1
:10014000050108010B010000200023002600290002
:100150002C002F00320000010000030106010901FC
:1001600000000A0B02090C0D0E0807030401000031
:10017000000000000000000000000000000000007F
:10018000000000000000000000000000121110003C
:10019000000000000000000000000000000000005F
:1001A00000000000000000002100240027002A00B9
:1001B0002D003000330001010000040107010A0195
:1001C0000102102020080810204010204080020169
:1001D000020108040201010204081020408080404E
:1001E000201008040201800402018040201008044D
:1001F00002010804020101020408102040800102EB
:1002000004081020408005050505070508080808B2
:10021000020202020A0A080804040404010101019E
:100220000101010103030303030303030407070799
:100230000C0C0C0C0C0C0C0C02020202060606063E
:10024000060606060B0B0B0B0B0B0B0B2A24FA23D3
:1002500011241FBECFEFD1E2DEBFCDBF00E00CBF47
:1002600015E0A0E0B2E0E2E2F4E500E00BBF02C07E
:1002700007900D92A836B107D9F727E0A8E6B5E0B8
:1002800001C01D92AF30B207E1F711E0C7E2D1E043
:1002900000E006C021970109802FFE010E94B027CF
:1002A000C632D10780E00807A9F70E94C3250C9445
:1002B000002AA6CE80E090E00895089581E090E0C5
:1002C0000895FC0182859385089582E090E0089569
:1002D00026E532E0FC0121933193CF010C94C51443
:1002E00026E532E0FC0121933193CF010C94C51433
:1002F00026E532E0FC0121933193CF010C94C51423
:10030000CF93DF93EC01DB01ED91FC91008CF18D3B
:10031000E02DCB011995811103C065E476E002C0A0
:100320006BE476E0CE010E940115CE01DF91CF9102
:100330000895CF93DF93EC01DB01ED91FC910688EA
:10034000F789E02DCB011995811103C069E376E0AF
:1003500002C06FE376E0CE010E940115CE01DF916D
:10036000CF910895CF93DF93EC016E5F7F4F0E9492
:100370000115CE01DF91CF91089526E532E0FC0111
:1003800021933193CF010C9401150F931F93CF93B9
:10039000DF93EC018B016BE476E0C8010E94D81377
:1003A000882339F0E881F9810688F789E02D61E03A
:1003B0000DC065E476E0C8010E94D813882361F07F
:1003C000E881F9810688F789E02D60E0CE01DF91B0
:1003D000CF911F910F911994DF91CF911F910F91A0
:1003E00008950F931F93CF93DF9300D000D0CDB724
:1003F000DEB78B01DC01ED91FC910084F185E02DED
:10040000BC01CE0101961995B801CE0101960E945A
:10041000D813182FCE0101960E94C51481E0111146
:1004200001C080E026960FB6F894DEBF0FBECDBFA8
:10043000DF91CF911F910F910895FC0180850E945B
:10044000052221E0892B09F420E0822F0895FC0188
:1004500080850E94052221E0892B09F420E0822F6B
:100460000895FC0180850C942D22EF92FF920F934A
:100470001F93CF93DF93CDB7DEB768970FB6F8948D
:10048000DEBF0FBECDBF7C018B01DB01ED91FC9186
:100490000088F189E02DCE0143961995F801608519
:1004A00071854AE0CE010D960E94CA14D801ED91E3
:1004B000FC910084F185E02DB801CE0107961995D5
:1004C0006EE873E0CE0101960E940915BE01695FD6
:1004D0007F4FCE0101960E944E146FE973E00E9497
:1004E0003714BE01635F7F4F0E944E1463EA73E0CE
:1004F0000E943714BE016D5E7F4F0E944E14BC01F6
:10050000C7010E940115CE0101960E94C514CE01BB
:1005100007960E94C514CE010D960E94C514CE0107
:1005200043960E94C514C70168960FB6F894DEBFC3
:100530000FBECDBFDF91CF911F910F91FF90EF9034
:100540000895EF92FF920F931F93CF93DF93CDB750
:10055000DEB768970FB6F894DEBF0FBECDBF7C0143
:100560008B01DB01ED91FC910088F189E02DCE013A
:1005700043961995F801608571854AE0CE010D9684
:100580000E94CA14D801ED91FC910084F185E02D00
:10059000B801CE010796199569EA73E0CE0101967C
:1005A0000E940915BE01695F7F4FCE0101960E942E
:1005B0004E146FE973E00E943714BE01635F7F4FF2
:1005C0000E944E1463EA73E00E943714BE016D5E10
:1005D0007F4F0E944E14BC01C7010E940115CE013D
:1005E00001960E94C514CE0107960E94C514CE0143
:1005F0000D960E94C514CE0143960E94C514C701F2
:1006000068960FB6F894DEBF0FBECDBFDF91CF91D5
:100610001F910F91FF90EF900895CF93DF93EC011E
:10062000FB01628573854AE00E94CA14CE01DF9106
:10063000CF910895EF92FF920F931F93CF93DF9383
:10064000CDB7DEB768970FB6F894DEBF0FBECDBF4B
:100650007C018B01DB01ED91FC910088F189E02D9B
:10066000CE0143961995F801608571854AE0CE0167
:100670000D960E94CA14D801ED91FC910084F18579
:10068000E02DB801CE010796199569EB73E0CE0114
:1006900001960E940915BE01695F7F4FCE01019648
:1006A0000E944E146FE973E00E943714BE01635F2D
:1006B0007F4F0E944E1463EA73E00E943714BE011C
:1006C0006D5E7F4F0E944E14BC01C7010E94011550
:1006D000CE0101960E94C514CE0107960E94C51452
:1006E000CE010D960E94C514CE0143960E94C514FA
:1006F000C70168960FB6F894DEBF0FBECDBFDF917D
:10070000CF911F910F91FF90EF900895CF92DF92BC
:10071000EF92FF920F93CF93DF93CDB7DEB7E097C1
:100720000FB6F894DEBF0FBECDBF6C017B0169EC44
:1007300073E0CE018B960E940915D701ED91FC91D3
:100740000084F185E02DB701CE01859619956FECF7
:1007500073E0CE014F960E94091564ED73E0CE015F
:1007600049960E94091563EE73E0CE0143960E94FC
:100770000915F701608571854AE0CE010D960E944A
:10078000CA146EE475E0CE0107960E940915D701E0
:10079000ED91FC910088F189E02DB701CE01019621
:1007A000199561EE74E0C6010E94091567EE73E0C9
:1007B000C6010E945F14D701ED91FC910488F58970
:1007C000E02D01E09E012B5D3F4FAE01455D5F4F87
:1007D000B601C7011995D701ED91FC910488F589FF
:1007E000E02D9E01275E3F4FAE01415E5F4FB60197
:1007F000C7011995D701ED91FC910488F589E02D89
:100800009E01235F3F4FAE014D5E5F4FB601C701B2
:100810001995D701ED91FC910488F589E02D00E050
:100820009E012F5F3F4FAE01495F5F4FB601C70189
:1008300019956AEE73E0C6010E945F14CE0101961D
:100840000E94C514CE0107960E94C514CE010D96D4
:100850000E94C514CE0143960E94C514CE0149964C
:100860000E94C514CE014F960E94C514CE018596F4
:100870000E94C514CE018B960E94C514C601E09655
:100880000FB6F894DEBF0FBECDBFDF91CF910F91B1
:10089000FF90EF90DF90CF900895CF92DF92EF928C
:1008A000FF920F93CF93DF93CDB7DEB7E0970FB6EC
:1008B000F894DEBF0FBECDBF6C017B0169EC73E025
:1008C000CE018B960E940915D701ED91FC91008411
:1008D000F185E02DB701CE01859619956FEC73E097
:1008E000CE014F960E9409156DEE73E0CE01499638
:1008F0000E94091563EE73E0CE0143960E9409152C
:10090000F701608571854AE0CE010D960E94CA14F8
:100910006EE475E0CE0107960E940915D701ED91AE
:10092000FC910088F189E02DB701CE01019619955F
:1009300061EE74E0C6010E94091567EE73E0C6011E
:100940000E945F14D701ED91FC910488F589E02D98
:1009500001E09E012B5D3F4FAE01455D5F4FB6014B
:10096000C7011995D701ED91FC910488F589E02D17
:100970009E01275E3F4FAE01415E5F4FB601C7014A
:100980001995D701ED91FC910488F589E02D9E0120
:10099000235F3F4FAE014D5E5F4FB601C701199512
:1009A000D701ED91FC910488F589E02D00E09E01CE
:1009B0002F5F3F4FAE01495F5F4FB601C7011995E9
:1009C0006AEE73E0C6010E945F14CE0101960E9498
:1009D000C514CE0107960E94C514CE010D960E9443
:1009E000C514CE0143960E94C514CE0149960E94BB
:1009F000C514CE014F960E94C514CE0185960E9463
:100A0000C514CE018B960E94C514C601E0960FB6A0
:100A1000F894DEBF0FBECDBFDF91CF910F91FF9055
:100A2000EF90DF90CF900895CF92DF92EF92FF92F8
:100A30000F93CF93DF93CDB7DEB7EC970FB6F89453
:100A4000DEBF0FBECDBF6C017B0169EC73E0CE0150
:100A5000C7960E940915D701ED91FC910084F1859C
:100A6000E02DB701CE01C19619956FEC73E0CE0170
:100A70008B960E9409156BEF73E0CE0185960E945C
:100A8000091563EE73E0CE014F960E940915F70138
:100A9000608571854AE0CE0149960E94CA1469E0DA
:100AA00074E0CE0143960E940915D7011C966D9102
:100AB0007C911D974AE0CE010D960E94CA146DE00C
:100AC00074E0CE0107960E940915F70166857785C7
:100AD0004AE0CE0101960E94CA1461EE74E0C6019C
:100AE0000E94091567EE73E0C6010E945F14D701EA
:100AF000ED91FC910488F589E02D01E09E012F5CC9
:100B00003F4FAE01495C5F4FB601C7011995D70150
:100B1000ED91FC910488F589E02D9E012B5D3F4FFE
:100B2000AE01455D5F4FB601C7011995D701ED9143
:100B3000FC910488F589E02D9E01275E3F4FAE01B0
:100B4000415E5F4FB601C7011995D701ED91FC9148
:100B50000488F589E02D9E01235F3F4FAE014D5E75
:100B60005F4FB601C7011995D701ED91FC9104883B
:100B7000F589E02D00E09E012F5F3F4FAE01495FF8
:100B80005F4FB601C70119956AEE73E0C6010E9476
:100B90005F14CE0101960E94C514CE0107960E94F3
:100BA000C514CE010D960E94C514CE0143960E9435
:100BB000C514CE0149960E94C514CE014F960E94DD
:100BC000C514CE0185960E94C514CE018B960E9455
:100BD000C514CE01C1960E94C514CE01C7960E94CD
:100BE000C514C601EC960FB6F894DEBF0FBECDBF9C
:100BF000DF91CF910F91FF90EF90DF90CF9008950C
:100C0000AF92BF92CF92DF92EF92FF920F93CF936A
:100C1000DF9300D000D0CDB7DEB77B015A01690168
:100C200067EB73E0CE0101960E940915B501CE0174
:100C300001960E944E1467EB73E00E94371461E145
:100C400074E00E94371467EB73E00E943714B6011A
:100C50000E944E1467EB73E00E943714BC01C70179
:100C60000E946D14CE0101960E94C514002329F044
:100C700064E174E0C7010E945F1460EE74E0C70194
:100C80000E945F1426960FB6F894DEBF0FBECDBF4C
:100C9000DF91CF910F91FF90EF90DF90CF90BF90B9
:100CA000AF900895CF93DF93EC011ADBCE01DF9173
:100CB000CF910C944D28CF93DF93EC0109DBCE014B
:100CC000DF91CF910C944D28CF93DF93EC0110DB93
:100CD000CE01DF91CF910C944D288F929F92AF92CD
:100CE000BF92CF92DF92EF92FF920F931F93CF9319
:100CF000DF93EC017B876A87C888D9880D2C000CAC
:100D0000EE08FF088C849D84092C000CAA08BB08FF
:100D1000CB01770FAA0BBB0B9C01AD012819390938
:100D20004A095B096A897B89CB01770FAA0BBB0B48
:100D3000BC01CD016C197D098E099F090E94A12774
:100D40002E853F858901330F220B330BA9019801B2
:100D5000281939094A095B090E944A27C20ED31E85
:100D6000E41EF51E86010884D985C02D61E08C2F14
:100D70000E945C22C114D10409F4B1C00F3F1105D7
:100D800009F4AFC0FE01FF27E05AFE4FE4914E2F59
:100D900050E0FA013197E231F10508F09DC0882753
:100DA000EE58FF4F8F4F0C94B02784B5806884BDF8
:100DB000C7BCA7C084B5806284BDC8BCA2C08091F6
:100DC0008000806880938000D0928900C092880063
:100DD00098C080918000806280938000D0928B00C8
:100DE000C0928A008EC080918000886080938000CD
:100DF000D0928D00C0928C0084C08091B000806839
:100E00008093B000C092B3007CC08091B00080623B
:100E10008093B000C092B40074C08091900080684C
:100E200080939000D0929900C09298006AC08091FF
:100E30009000806280939000D0929B00C0929A00B4
:100E400060C080919000886080939000D0929D0057
:100E5000C0929C0056C08091A00080688093A00042
:100E60008091A0008F7B8093A000D092A900C092B7
:100E7000A80047C08091A00080628093A000D0921B
:100E8000AB00C092AA003DC08091A0008860809312
:100E9000A000D092AD00C092AC0033C08091200180
:100EA000806880932001D0922901C092280129C036
:100EB00080912001806280932001D0922B01C0920A
:100EC0002A011FC080912001886080932001D09268
:100ED0002D01C0922C0115C00038110514F460E0FA
:100EE00001C061E08C2FDF91CF911F910F91FF9096
:100EF000EF90DF90CF90BF90AF909F908F900C9429
:100F00002D22DF91CF911F910F91FF90EF90DF90F5
:100F1000CF90BF90AF909F908F9008950F931F93A5
:100F2000CF93DF93EC01E881F98106891789FB01F2
:100F300080819181009719F00E94C72603C060E06C
:100F400070E0CB01CE01F801DF91CF911F910F919D
:100F50001994AF92BF92CF92DF92EF92FF920F93CC
:100F60001F93CF93DF93CDB7DEB7A8970FB6F89452
:100F7000DEBF0FBECDBF8C016B015A017B0188E043
:100F8000E80EF11C67E576E0C7010E94D8138111D5
:100F900055C061E576E0C7010E94D81381114EC0AB
:100FA000CE0101960E944B1F66E174E0CE0183964C
:100FB0000E940915BE016D5D7F4FCE0101960E9412
:100FC000481FCE0183960E94C5146DE274E0CE01E5
:100FD00083960E940915BE016D5D7F4FCE0101967B
:100FE0000E94451FCE0183960E94C51468E374E0F9
:100FF000CE0183960E940915BE016D5D7F4FCE0123
:1010000001960E94421FCE0183960E94C514BE0124
:101010006F5F7F4FCE0183960E948A1EBE016D5D79
:101020007F4FC5010E946F15CE0183960E94C514A3
:10103000CE0101960E94CE1C80E057C061E576E0AB
:10104000C7010E94D813882309F1D801ED91FC91C2
:10105000E288F38863E376E0CE0101960E940115F1
:10106000AE014F5F5F4FB601CE0183960E94F51F20
:10107000BE016D5D7F4FC801F7011995CE018396C2
:101080000E94C514CE0101960E94C514CE0101969E
:101090000E94761FD801ED91FC910088F189E02D26
:1010A000B801CE0183961995BE016D5D7F4FCE01CB
:1010B00001960E94871ECE0183960E94C514BE0130
:1010C0006F5F7F4FCE0183960E948A1EBE016D5DC9
:1010D0007F4FC5010E946F15CE0183960E94C514F3
:1010E000CE0101960E94CE1C81E0A8960FB6F8941E
:1010F000DEBF0FBECDBFDF91CF911F910F91FF904B
:10110000EF90DF90CF90BF90AF900895EF92FF9255
:101110000F931F93CF93DF93CDB7DEB7A0970FB692
:10112000F894DEBF0FBECDBF8C017B0182E893E057
:101130009A838983B8016E5F7F4FCE0103960E9428
:101140000115B801685F7F4FCE0109960E94011515
:10115000B801625F7F4FCE010F960E940115B80162
:101160006C5E7F4FCE0145960E940115B801665E08
:101170007F4FCE014B960E940115B701CE0101961B
:10118000D5D2CE0101960E94EB1CA0960FB6F89422
:10119000DEBF0FBECDBFDF91CF911F910F91FF90AA
:1011A000EF900895EF92FF920F931F93CF93DF93E9
:1011B000CDB7DEB7E4970FB6F894DEBF0FBECDBF54
:1011C0007B01CE0101960E944B1F6EE374E0CE01BD
:1011D00083960E940915BE016D5D7F4FCE01019679
:1011E0000E94481FCE0183960E94C51465E474E0F6
:1011F000CE0183960E940915BE016D5D7F4FCE0121
:1012000001960E94451FCE0183960E94C51468E393
:1012100074E0CE0183960E940915BE016D5D7F4F7B
:10122000CE0101960E94421FCE0183960E94C514F2
:1012300083E090E09C8F8B8F61EE74E0CE018F96FF
:101240000E9409156FE474E0CE018F960E945F142E
:1012500060E674E0CE018F960E945F1400E010E01B
:1012600080911706909118060817190788F59801BC
:10127000220F331FE0911506F0911606E20FF31FBF
:1012800060817181DB01ED91FC910484F585E02D95
:10129000CE0183961995BE016D5D7F4FCE01899673
:1012A0000E94011568E674E0CE0189960E94371409
:1012B000BC01CE018F960E946D14CE0189960E94CA
:1012C000C514CE0183960E94C5140F5F1F4FC8CF6F
:1012D0006FE674E0CE018F960E945F14BE01615DDF
:1012E0007F4FCE0183960E940115BE016D5D7F4F39
:1012F000CE0101960E943F1FCE0183960E94C51425
:10130000BE016F5F7F4FCE0183960E948A1EBE0191
:101310006D5D7F4FC7010E946F15CE0183960E94BD
:10132000C514CE018F960E94C514CE0101960E946D
:10133000CE1CE4960FB6F894DEBF0FBECDBFDF9192
:10134000CF911F910F91FF90EF9008954F925F9270
:101350006F927F928F929F92AF92BF92CF92DF92C5
:10136000EF92FF920F931F93CF93DF93CDB7DEB72A
:1013700062970FB6F894DEBF0FBECDBF7C018B0124
:1013800022E833E0FC0121933193CF010E94011543
:101390004701F8E08F0E911C61EE74E0C4010E94D9
:1013A000091557018EE0A80EB11C61EE74E0C5016D
:1013B0000E9409153701E4E16E0E711C61EE74E0C4
:1013C000C3010E9409152701FAE14F0E511C61EE7D
:1013D00074E0C2010E940915B801CE010D960E9469
:1013E000011540E050E0BE01635F7F4FC7010E94DE
:1013F000B91F8C010F3F8FEF180711F0980104C03F
:1014000029893A892150310940E050E0BE01635FEB
:101410007F4FCE0107960E941D1567E375E0CE0150
:1014200001960E94091540E050E0BE016F5F7F4FBA
:10143000CE0107960E94BB136C01CE0101960E945B
:10144000C514960140E050E0BE01695F7F4FCE01B8
:1014500001960E941D15BE016F5F7F4FC4010E945F
:101460007314CE0101960E94C514EFEFCE1ADE0A66
:1014700067E375E0CE0101960E940915A601BE0141
:101480006F5F7F4FCE0107960E94BB134C01CE01C8
:1014900001960E94C5149401A601BE01695F7F4FA9
:1014A000CE0101960E941D15BE016F5F7F4FC501E1
:1014B0000E947314CE0101960E94C51417FD2AC024
:1014C000A801BE01635F7F4FC7010E94B91F6C0175
:1014D0008F3FFFEF9F0711F09C0104C029893A89D3
:1014E00021503109A801BE01635F7F4FCE010196F3
:1014F0000E941D158D819E81892B49F1BE016F5F70
:101500007F4FC3010E946D14CE0101960E94C51445
:101510008601D4CF17FD26C0A801BE01635F7F4FAF
:10152000C7010E94B91F6C018FEFC816D806A9F039
:101530009601A801BE01635F7F4FCE0101960E9414
:101540001D15BE016F5F7F4FC2010E946D14CE0159
:1015500001960E94C5148601DDCF29893A89215060
:101560003109E7CFCE0107960E94C514CE010D9632
:101570000E94C51462960FB6F894DEBF0FBECDBFB1
:10158000DF91CF911F910F91FF90EF90DF90CF905F
:10159000BF90AF909F908F907F906F905F904F9093
:1015A00008950F931F93CF93DF93CDB7DEB729979D
:1015B0000FB6F894DEBF0FBECDBF8C01CE010196F1
:1015C00029874F8358870E940115BE016F5F7F4FA7
:1015D000C8010E94BD01CE0101960E94C51480E79A
:1015E00092E0F801918380834F814087588551872D
:1015F00061E0842F0E945C222985622FC8010E942D
:10160000310229960FB6F894DEBF0FBECDBFDF9131
:10161000CF911F910F9108950F931F93CF93DF9355
:10162000CDB7DEB728970FB6F894DEBF0FBECDBF9B
:101630008C01CE0101964F8358870E940115BE018F
:101640006F5F7F4FC8010E94BD01CE0101960E94CD
:10165000C5148AE392E0F801918380834F8140872B
:101660005885518760E0842F0E945C2228960FB62F
:10167000F894DEBF0FBECDBFDF91CF911F910F91C8
:1016800008956F927F928F929F92AF92BF92CF9266
:10169000DF92EF92FF920F931F93CF93DF93CDB71B
:1016A000DEB728970FB6F894DEBF0FBECDBF4C0152
:1016B0003901CE0101964F8358870E940115BE0162
:1016C0006F5F7F4FC4010E94BD01CE0101960E9451
:1016D000C5148CE192E0F401918380834F814087AF
:1016E0005885518715870487F786E686D18AC08A90
:1016F000B38AA28A61E0842F0E945C22B301C401F4
:10170000ECDA28960FB6F894DEBF0FBECDBFDF919E
:10171000CF911F910F91FF90EF90DF90CF90BF90EE
:10172000AF909F908F907F906F9008956F927F926F
:101730008F929F92AF92BF92CF92DF92EF92FF92E1
:101740001F93CF93DF93CDB7DEB7AE970FB6F89464
:10175000DEBF0FBECDBF6C015B0167E576E008968A
:101760000E94D813811107C0E12CF12C46018EE0B4
:10177000880E911CA6C0B601625F7F4FCE01019614
:101780000E9401158D819E81892B49F06AEA74E0DF
:1017900089819A810E94D62911E0892B09F010E0F5
:1017A000CE0101960E94C5141123F1F2CE010196DB
:1017B0000E94761F61EE74E0CE0189960E940915A1
:1017C00067EE73E0CE0189960E945F146CEA74E0C4
:1017D000CE0189960E945F14E12CF12C80911706AE
:1017E00090911806E816F90688F5E0911506F09133
:1017F0001606C701880F991FE80FF91F60817181D4
:10180000DB01ED91FC910284F385E02DCE018396FE
:101810001995BE016D5D7F4FCE0189960E946D14B2
:10182000CE0183960E94C5148091170690911806E8
:101830000197E816F90631F064E174E0CE0189966B
:101840000E945F14BFEFEB1AFB0AC8CF60EC74E094
:10185000CE0189960E945F146AEE73E0CE018996EC
:101860000E945F14BE01675D7F4FCE0183960E9488
:101870000115BE016D5D7F4FCE0101960E943F1F95
:10188000CE0183960E94C514BE016F5F7F4FCE01CB
:1018900083960E948A1EBE016D5D7F4FC5010E9426
:1018A0006F15CE0183960E94C514CE0189960E94C1
:1018B000C514CE0101960E94CE1C9FC0BFEFEB1A4B
:1018C000FB0A8091170690911806E816F90608F0B1
:1018D0004BC0E0911506F0911606C701880F991FBD
:1018E000E80FF91F60807180B401CE0183960E94D9
:1018F0000115D301ED91FC910084F185E02DB30138
:10190000CE01019619952FA138A54D815E8124172E
:10191000350790F08BA19CA1009771F069817A81C5
:101920006115710549F0241B350B820F931F0E942E
:10193000D62911E0892B09F010E0CE0101960E9412
:10194000C514CE0183960E94C514112309F4B6CFA5
:10195000D301ED91FC910480F581E02DA501B60144
:10196000C301199511E049C0CE0101960E944B1F99
:1019700063EC74E0CE0183960E940915BE016D5D93
:101980007F4FCE0101960E94481FCE018396FDD75E
:101990006DE274E0CE0183960E940915BE016D5D73
:1019A0007F4FCE0101960E94451FCE018396EDD751
:1019B00068E374E0CE0183960E940915BE016D5D57
:1019C0007F4FCE0101960E94421FCE018396DDD744
:1019D000BE016F5F7F4FCE0183960E948A1EBE01BB
:1019E0006D5D7F4FC5010E946F15CE018396CDD7E7
:1019F000CE0101960E94CE1C10E0812FAE960FB64C
:101A0000F894DEBF0FBECDBFDF91CF911F91FF9045
:101A1000EF90DF90CF90BF90AF909F908F907F908E
:101A20006F900895FC01918D228D892F90E0805C4C
:101A30009F4F821B91098F739927089580E090E052
:101A4000892B19F04ED5811125C080E090E0892BBB
:101A500041F080E090E0892B21F00E94000081118C
:101A60001CC080E090E0892B41F080E090E0892B61
:101A700021F00E940000811113C080E090E0892BCA
:101A8000A1F080E090E0892B81F00E94000081119C
:101A90000AC008950E940000D8CF0E940000E1CF44
:101AA0000E940000EACF0C94000008950895CF939F
:101AB000DF931F92CDB7DEB76983DC01ED91FC9116
:101AC0000280F381E02D41E050E0BE016F5F7F4F67
:101AD00019950F90DF91CF910895FC01818D928D22
:101AE0000895FC018489958908952CED32E0FC016C
:101AF00031832083FB014089518962897389FC010C
:101B000042835383648375830895DC01ED91FC91D6
:101B1000048CF58DE02D199480E00895CF93DF9328
:101B20001F92CDB7DEB76983DC01ED91FC91028095
:101B3000F381E02D41E050E0BE016F5F7F4F1995CA
:101B40000F90DF91CF910895FC019485FB0184856E
:101B5000981303C081E0943009F480E0089521E0F7
:101B6000FC018485843009F420E0822F0895BF921F
:101B7000CF92DF92EF92FF920F931F93CF93DF9359
:101B800000D000D0CDB7DEB7FC01208D243009F0A5
:101B90004CC06A017B018C01B12C63E070E08B2D9D
:101BA0000E945A1D811103C0F801B08E06C0883111
:101BB000D9F3B394F4E0BF12F0CFF801808D8430F4
:101BC000A1F196E0E4EEF2E0DE01119601900D92B3
:101BD0009A95E1F7F70193819F779C8394819D8388
:101BE00095819E83B7016E5F7F4F0E94891DB6016C
:101BF000F801808D0E947A1DF801808D90E0982F69
:101C0000882746E050E0BE016F5F7F4F8A5F9B4FA1
:101C10000E945719F801128E118E20E8A60162E089
:101C2000808D0E94561A81E001C080E026960FB692
:101C3000F894DEBF0FBECDBFDF91CF911F910F9102
:101C4000FF90EF90DF90CF90BF900895CF93DF93F8
:101C50001F92CDB7DEB7FC01218D328D232B49F0C9
:101C6000BE016F5F7F4F808D0E949D19898190E03A
:101C700002C08FEF9FEF0F90DF91CF910895CF9328
:101C8000DF93FC01218D328D2115310519F48FEF81
:101C90009FEF11C0EC014217530708F0A901888D8E
:101CA0000E94E1191816190694F7298D3A8D281B00
:101CB000390B3A8F298FDF91CF9108950F931F939E
:101CC000CF93DF931F92CDB7DEB7FC01218D328D0C
:101CD000232B61F08C0141E050E0BE016F5F7F4F2C
:101CE000808D0E94E119181619061CF08FEF9FEFE6
:101CF00008C0F801818D928D0197928F818F898123
:101D000090E00F90DF91CF911F910F9108950F9365
:101D10001F93CF93DF93CDB7DEB728970FB6F89414
:101D2000DEBF0FBECDBF8C01F801818D928D892B56
:101D300049F0D801ED91FC910284F385E02DC801B2
:101D40001995F2CF808D0E94C319181619065CF5FB
:101D500048E050E0BE016F5F7F4FD80158968C91EC
:101D60000E94E1199C0118161906DCF489819A81F8
:101D7000AB81BC81F801808B918BA28BB38B8D8161
:101D800090E0982F88272E81820F911D958B848B50
:101D90002F8130E0322F22278885280F311D328F86
:101DA000218FC90102C080E090E028960FB6F89418
:101DB000DEBF0FBECDBFDF91CF911F910F91089570
:101DC000AF92BF92CF92DF92FF920F931F93CF9368
:101DD000DF938C015B01EA01FC01C688D788F08C97
:101DE00080E590E00E94921D8F2D0E94E9218C17C2
:101DF0009D0720F48F2D0E94E921EC019E01A50191
:101E0000B6018F2D0E9488210E94911DF8018689BC
:101E100097898C0F9D1F978B868BCE01DF91CF9179
:101E20001F910F91FF90DF90CF90BF90AF900895DA
:101E3000FF920F931F93CF93DF93FB01DC01579623
:101E40001C921E9256975896FC908281811109C06F
:101E50008381811106C08481811103C0858188231B
:101E6000C1F041155105A9F08A01EF0180E590E02C
:101E70000E94921DBE016E5F7F4F8F2D0E94891DB3
:101E8000B8018F2D0E947A1D0E94911D81E090E083
:101E900002C080E090E0DF91CF911F910F91FF9001
:101EA0000895CF93FC01C08D80E590E00E94921DC3
:101EB00060E270E08C2F0E94212162E070E08C2FA4
:101EC0000E945A1D84FD19C062E070E08C2F0E94B0
:101ED0005A1D83FF0BC048E162E070E08C2F0E9426
:101EE000511D0E94911D80E090E011C00E94911D43
:101EF00080E590E00E94921DE0CF40E162E070E05A
:101F00008C2F0E94511D0E94911D81E090E0CF9185
:101F10000895CF92DF92EF92FF920F931F93CF938A
:101F2000DF93CDB7DEB7AF970FB6F894DEBF0FBE25
:101F3000CDBF7C016A010CED12E01A8309831C8677
:101F40001B8688EE93E0A0E0B0E08D879E87AF8788
:101F5000B88B8AE593E09A878987188F0F8B198E43
:101F60001A8E1B8E1C8E84E089A31DA30CA31EA2B7
:101F70001FA218A619A68091070690910806A091A5
:101F80000906B0910A068CA79DA7AEA7BFA78B83B1
:101F90009C83AD83BE8318861F82AE014C5D5F4F6C
:101FA000CE010196C4D681309105B1F4D701ED91EF
:101FB000FC910488F589E02D1BA70AA78EA19FA19B
:101FC000A8A5B9A58CA79DA7AEA7BFA7A601BE01CE
:101FD000665D7F4FC7011995AF960FB6F894DEBFC7
:101FE0000FBECDBFDF91CF911F910F91FF90EF906A
:101FF000DF90CF900895CF93DF93EC01888D8430EC
:1020000061F00E94461AE88DF0E0EE0FFF1FE951E3
:10201000F94F1182108284E0888FDF91CF9108956B
:10202000EF92FF921F93CF93DF93FC01208D24301A
:1020300011F080E01CC07B01EC0110E0812F0E94B8
:10204000951D811102C0188F05C08831E1F31F5F13
:102050001430A1F7888D843061F3FD86EC861A8EEA
:10206000198E20E0A70162E00E94561A81E0DF91FC
:10207000CF911F91FF90EF900895FC01848DDF01B7
:10208000A80FB11DA35ABF4F2C91848D90E00196EB
:102090008F739927848FA689B7892C93A089B189DA
:1020A0008C9180648C93938D848D981306C00288E4
:1020B000F389E02D80818F7D80830895FC018485E4
:1020C000843011F00C94951D80E008954F925F923A
:1020D0006F927F928F929F92AF92BF92CF92DF9238
:1020E000EF92FF921F93CF93DF93CDB7DEB72D977B
:1020F0000FB6F894DEBF0FBECDBF7C0197EEA92EC0
:1021000096E0B92E10E0C12CD12C28EE422E23E00F
:10211000522E612C712C3CE0832E33E0932E1C82D6
:102120001B824D825E826F8278869A8289821D87A9
:10213000D5012D913D915D01F7018481958128178D
:102140003907A1F4CE010196B9DF843161F0CE01E7
:102150000196B4DF8C3151F4CE0101960E94611BCF
:10216000892B91F003C0CC24C394D12C1F5F143071
:10217000B1F6CD2871F4D701ED91FC910084F18581
:10218000E02DC701199505C0CE0101960E94E21A03
:10219000EDCF2D960FB6F894DEBF0FBECDBFDF9109
:1021A000CF911F91FF90EF90DF90CF90BF90AF90B5
:1021B0009F908F907F906F905F904F9008952F9297
:1021C0003F924F925F926F927F928F929F92AF92C7
:1021D000BF92CF92DF92EF92FF920F931F93CF9314
:1021E000DF93CDB7DEB72E970FB6F894DEBF0FBEE4
:1021F000CDBF7C016B015A0169DF07EE16E020E0DC
:10220000612C712C88EE282E83E0382E412C512C25
:102210009CE0892E93E0992E1C821B822D823E82A7
:102220004F8258869A8289822D87F8014191519177
:102230008F01F701848195814817590739F4CE0140
:1022400001962E873BDF2E858731E9F02F5F243002
:1022500019F7C3012E960FB6F894DEBF0FBECDBF9F
:10226000DF91CF911F910F91FF90EF90DF90CF9072
:10227000BF90AF909F908F907F906F905F904F90A6
:102280003F902F900895A501B601CE0101962E87AB
:102290000E94691B680E791E2E85D8CF8F929F925F
:1022A000AF92BF92CF92DF92EF92FF920F931F9364
:1022B000CF93DF93CDB7DEB72D970FB6F894DEBF7F
:1022C0000FBECDBF7C0100E010E038EE832E33E07E
:1022D000932EA12CB12C4CE0C42E43E0D42E1C82B2
:1022E0001B828D829E82AF82B886DA82C9820D8778
:1022F000CE010196E3DE811125C0F70144815581AD
:1023000020E061E0802F0E94561A80E590E00E9454
:10231000921D63E070E0802F0E945A1D833129F4E2
:1023200062E070E0802F0E9421210E94911DF70140
:1023300084819581000F111FF801E951F94F9183B4
:10234000808305C00F5F1F4F0430110541F62D96A5
:102350000FB6F894DEBF0FBECDBFDF91CF911F91B6
:102360000F91FF90EF90DF90CF90BF90AF909F9034
:102370008F9008950895CF92DF92EF92FF920F937E
:102380001F93CF93DF936C017A018B01C0E0D0E003
:10239000CE15DF0589F0D8016D918D01D601ED9143
:1023A000FC910190F081E02DC6011995892B11F463
:1023B0007E0102C02196ECCFC701DF91CF911F9122
:1023C0000F91FF90EF90DF90CF900895FC01538D17
:1023D000448D252F30E0842F90E0821B930B5417FF
:1023E00010F0CF96089501970895FC01918D828D8C
:1023F000981761F0828DDF01A80FB11D5D968C9159
:10240000928D9F5F9F73928F90E008958FEF9FEF63
:102410000895FC01918D828D981731F0828DE80F1F
:10242000F11D858D90E008958FEF9FEF08950E9434
:10243000C929CF93DF93EC0188819981009711F02E
:102440000E944D28198218821D821C821B821A82CA
:10245000DF91CF9108950F931F93CF93DF93EC01FA
:1024600088819981009729F02A813B8126173707B7
:1024700088F48B016F5F7F4F0E94E528009761F021
:10248000998388831B830A832C813D81232B11F43C
:10249000FC01108281E001C080E0DF91CF911F91AB
:1024A0000F910895EF92FF920F931F93CF93DF93B5
:1024B000EC017B018A01BA01CEDF811103C0CE019C
:1024C000B8DF07C01D830C83B701888199810E9402
:1024D000DF29CE01DF91CF911F910F91FF90EF90F7
:1024E000089588E695E09EDA21E0892B09F420E042
:1024F000822F0895EF92FF920F931F93CF93DF9354
:10250000EC0181E0888F9B8D8C8D981305C0E88944
:10251000F989808185FD23C0F62E0B8D10E00F5FB9
:102520001F4F0F731127E02E8C8DE8120BC00FB6D2
:1025300007FCFACFE889F989808185FFF5CFCE01C4
:102540009CDDF2CF8B8DFE01E80FF11DE35AFF4FAA
:10255000F0820B8FEA89FB898081806207C0EE8957
:10256000FF896083E889F98980818064808381E0C4
:1025700090E0DF91CF911F910F91FF90EF90089520
:10258000CF93DF93EC01888D8823C1F0EA89FB8922
:10259000808185FD05C0A889B9898C9186FD0EC012
:1025A0000FB607FCF5CF808185FFF2CFA889B989E6
:1025B0008C9185FFEDCFCE0160DDE8CFDF91CF912B
:1025C00008953FB7F8948091F4069091F506A09194
:1025D000F606B091F70626B5A89B05C02F3F19F067
:1025E0000196A11DB11D3FBFBA2FA92F982F882793
:1025F000820F911DA11DB11DBC01CD0142E0660FEE
:10260000771F881F991F4A95D1F708952FB7F8941F
:102610006091F0067091F1068091F2069091F306B8
:102620002FBF08951F920F920FB60F9211242F9370
:102630003F938F939F93AF93BF938091F0069091B8
:10264000F106A091F206B091F3063091EF0623E077
:10265000230F2D3720F40196A11DB11D05C026E8DA
:10266000230F0296A11DB11D2093EF068093F00663
:102670009093F106A093F206B093F3068091F406CE
:102680009091F506A091F606B091F7060196A11D6E
:10269000B11D8093F4069093F506A093F606B093CF
:1026A000F706BF91AF919F918F913F912F910F901E
:1026B0000FBE0F901F901895AF92BF92CF92DF92EE
:1026C000EF92FF920F931F93CF93DF93DC01CD9096
:1026D000DC901197C114D10409F442C01496CD9135
:1026E000DC9115972097E1F18C0156017501BFEF40
:1026F000AB1ABB0AF7018081082E000C990B0E94CF
:102700002F27892B99F72197CC0DDD1D8881082E65
:10271000000C990B0E942F27892B91F4AE014F5F7B
:102720005F4F4E195F09D80115965C934E9314972D
:10273000CE14DF0450F4B701C6010E94CD2905C0B4
:10274000CE15DF0558F32197E1CFD801ED91FC912B
:10275000119714968D919C911597E80FF91F10828F
:10276000DF91CF911F910F91FF90EF90DF90CF906D
:10277000BF90AF900895CF93DF93FC012481358102
:102780004217530780F4FB01DC01CD91DC9160819D
:102790007181CE01840F951F0E94E629009719F0E0
:1027A0008C1B9D0B02C08FEF9FEFDF91CF9108959F
:1027B000FC0124813581FB014481558124173507B3
:1027C00021F5FC0180819181FB016081718100977D
:1027D00019F061157105A1F46115710549F0232BFC
:1027E000B1F0FB01808190E09195819591090AC03B
:1027F000009769F0232B59F0FC01808190E002C022
:102800000E94D62921E0892B19F020E001C021E0A7
:10281000822F0895EF92FF920F931F93CF93DF9330
:10282000FC01248135816115710511F480E018C027
:1028300041155105A1F07B01EC018A01020F131F24
:10284000B80109DE882391F3288139818C819D812B
:10285000B701820F931F0E94DF291D830C8381E043
:10286000DF91CF911F910F91FF90EF900895CF933B
:10287000DF93EC016115710559F0FB010190002017
:10288000E9F73197AF01461B570BC4DF811102C036
:10289000CE01CFDDCE01DF91CF910895CF93DF93AD
:1028A000EC01FB014481558160817181B3DF8111AD
:1028B00002C0CE01BEDDCE01DF91CF91089561153A
:1028C000710549F0FB0101900020E9F73197AF0154
:1028D000461B570B9FCF80E00895FB014481558133
:1028E0006081718197CF0F931F93CF93DF938C01FA
:1028F000EB018617970771F1FC01808191810097A8
:10290000B1F0688179816115710579F04281538157
:102910002C813D814217530740F00E94DF298C81B2
:102920009D81F8019583848313C00E944D2888817E
:102930009981F801918380838A819B81938382832B
:102940008C819D8195838483198218821B821A82CF
:102950001D821C82C801DF91CF911F910F910895B4
:10296000CF93DF93EC01FB018617970751F060814D
:1029700071816115710521F04481558193DD01C09C
:1029800058DDCE01DF91CF910895FC0180819181C6
:102990000C944D28EF92FF920F931F93CF93DF93E8
:1029A000CDB7DEB762970FB6F894DEBF0FBECDBFCE
:1029B0008C01CB01F80111821082138212821582E0
:1029C000148250E09E012F5F3F4F7901B9010E94B0
:1029D000ED26F70101900020E9F73197AF014E197C
:1029E0005F09B701C8015EDD62960FB6F894DEBFDD
:1029F0000FBECDBFDF91CF911F910F91FF90EF9050
:102A00000895FC01118210821382128215821482B1
:102A1000A7CFFC01118210821382128215821482C8
:102A20006115710549F0FB0101900020E9F731972C
:102A3000AF01461B570B36CD0895BF92CF92DF9260
:102A4000EF92FF920F931F93CF93DF937C016B0163
:102A5000EA0189012417350720F48D2FE901042F9D
:102A6000182F61EE74E0C701D4DFD60114968D9162
:102A70009C911597C817D90738F58017910708F466
:102A80008C01D601ED91FC911197E00FF11FB08000
:102A900010824D915C91BA016C0F7D1F611571051B
:102AA00059F0FB0101900020E9F73197AF01461B77
:102AB000570BC701F7DC02C0C701BBDCD601ED91A3
:102AC000FC91E00FF11FB082C701DF91CF911F9100
:102AD0000F91FF90EF90DF90CF90BF900895DC01B1
:102AE000ED91FC91DB0114964D915C9115976D91E0
:102AF0007C910280F381E02D19946115710579F0C4
:102B0000FB0101900020E9F73197AF01461B570BFD
:102B1000DC01ED91FC910280F381E02D199480E0BD
:102B200090E008954F925F926F927F92EF92FF92A2
:102B30000F931F93CF93DF93CDB7DEB7A1970FB657
:102B4000F894DEBF0FBECDBF7C01FA01CB0119A204
:102B5000223008F42AE08E010F5D1F4F422E512CC7
:102B6000612C712CBF01A30192010E947027F90111
:102B7000CA01015011096A3014F4605D01C0695C3A
:102B8000D8016C93232B242B252B61F7B801C701A7
:102B9000B4DFA1960FB6F894DEBF0FBECDBFDF91B4
:102BA000CF911F910F91FF90EF907F906F905F906A
:102BB0004F9008958F929F92AF92BF92CF92DF92E3
:102BC000EF92FF920F931F93CF93DF937C01EB0162
:102BD0006C0182E0C80ED11C4701E5E08E0E911C0D
:102BE00000E010E0F60141916F0150E060E070E01C
:102BF0002AE0CE0197DF5C01E881F9810190F08144
:102C0000E02D6EE2CE0119958A0D9B1D080F191F4C
:102C1000C814D90439F7F701458150E060E070E04D
:102C20002AE0CE017FDF800F911FDF91CF911F91AE
:102C30000F91FF90EF90DF90CF90BF90AF909F905B
:102C40008F9008951F920F920FB60F9211240BB61A
:102C50000F922F933F934F935F936F937F938F9335
:102C60009F93AF93BF93EF93FF9388E695E005DAC8
:102C7000FF91EF91BF91AF919F918F917F916F9154
:102C80005F914F913F912F910F900BBE0F900FBE10
:102C90000F901F9018951F920F920FB60F9211244C
:102CA0000BB60F922F938F939F93EF93FF93E09127
:102CB0007805F09179058081E0917E05F0917F059E
:102CC00082FD12C09081809181058F5F8F7320916A
:102CD0008205821751F0E0918105F0E0E859FA4F42
:102CE000958F8093810501C08081FF91EF919F9125
:102CF0008F912F910F900BBE0F900FBE0F901F90D2
:102D000018951F93CF93DF93182F66E270E0D2D609
:102D1000C82FD0E067E270E0812FCCD6DC2FCC2723
:102D20009E01282BC901DF91CF911F9108952F9209
:102D30003F924F925F926F927F928F929F92AF924B
:102D4000BF92CF92DF92EF92FF920F931F93CF9398
:102D5000DF93CDB7DEB765970FB6F894DEBF0FBE31
:102D6000CDBF7C016B013A01FB0120E080E090E0E7
:102D70006AE03191332309F140ED430F4A3080F48A
:102D8000689FA001699F500D1124CA01C097830F4D
:102D9000911D37FD9A958F3F910559F350F313C05C
:102DA0003E3289F4233079F0D301A20FB11D12967F
:102DB0008C932F5F80E090E0DCCF233021F4F3018F
:102DC000858381E01FC0F701428153816481758151
:102DD00080910F0690911006A0911106B0911206F5
:102DE000481759076A077B0709F498C10FDC870168
:102DF000085F1F4F6F7077277C5FC80111D9813042
:102E000019F080E090E0EFC18CED92E09A83898325
:102E1000F70182819381A481B5818B839C83AD83EB
:102E2000BE8345E350E0BE016F5F7F4FC80100D80D
:102E3000892B19F4C12CD12C6CC1E8DBF701778305
:102E400066837627672776277A83698342E050E096
:102E5000BE016F5F7F4FC8010E94E00E81E090E0ED
:102E60009E878D8742E050E0BE01635F7F4FC801BF
:102E70000E94E00E80E091E09E878D8742E050E066
:102E8000BE01635F7F4FC8010E94E00E1E861D8653
:102E900042E050E0BE01635F7F4FC8010E94E00E38
:102EA00042E050E0BE01635F7F4FC8010E94E00E28
:102EB00042E050E0BE01635F7F4FC8010E94E00E18
:102EC0005601F5018081882311F1F6015F0181919E
:102ED000811115C045018C189D081814190494F42B
:102EE0008F8641E050E0BE01615F7F4FC8010E94C4
:102EF000E00EA401B601C8010E94E00E03C08E32AC
:102F000029F7E8CF6501FFEFCF1ADF0ADACF1F8676
:102F100041E050E0BE01615F7F4FC8010E94E00EBA
:102F2000C12CDD24D394DE86CD8642E050E0BE0184
:102F3000635F7F4FC8010E94E00EDE86CD8642E0CF
:102F400050E0BE01635F7F4FC8010E94E00EC801E0
:102F50000E94510F892B09F46DCF63E0A62EB12C8E
:102F6000F2E06F0E711C52DB1B012C01C8010E94A4
:102F7000870E181619069CF049DBDC01CB0182197B
:102F80009309A409B50989389341A105B105D0F485
:102F900062E370E080E090E00E949822E7CFF701C2
:102FA0004281538164817581808D918DA28DB38D15
:102FB000481759076A077B0741F4848D958DC5979B
:102FC00021F406C02FEF3FEF9AC02EEF3FEF97C0DE
:102FD000F70181A192A10C970CF4A6C04CE050E03F
:102FE000BE016F5F7F4FC8010E943F0E8B8190E052
:102FF000982F88272C81822B9A8B898B298130E00E
:10300000322F22274A81242BF7014681578142170C
:10301000530709F086C097FF84C08F709270892B88
:1030200009F0DEC0CF80D12CDC2CCC248885C82AC6
:10303000C114D10409F4D1C0812C912C8D8190E070
:10304000982F88272E81822B8816990608F46FC046
:10305000812C912C41E050E0BE016D5E7F4FC80194
:103060000E943F0E8B89982F907C09F093C08111AC
:1030700086C08B898111EECF42E050E0BE01615FD6
:103080007F4FC8010E943F0E42E050E0BE01635FE7
:103090007F4FC8010E943F0EC8010E945E0EC8010A
:1030A0000E945E0EC8010E945E0EC8010E945E0E64
:1030B00042E050E0BE016F5E7F4FC8010E943F0EAC
:1030C0008F8598898115914009F069C02D853E85CD
:1030D0003227232732272130310509F060C0898942
:1030E0009A898115944009F075C044E050E0B3011D
:1030F000C8012C8B3D8B0E943F0E2C893D896901B4
:10310000F1E0AF1AB10829F02FEFC216D20609F488
:103110002ACFC8010E94FB0FC60165C08EEF9FEF4A
:1031200062C02CEF3FEFEBCF2DEF3FEFE8CF41E058
:1031300050E0BE01635F7F4FC8010E943F0E8D8546
:10314000811113C08D858111F2CFC8010E945E0EDE
:10315000C8010E945E0EC8010E945E0EC8010E9456
:103160005E0EFFEF8F1A9F0A69CF8D859FEF980F34
:103170009D87882339F3C8010E945E0EF6CF8B89A4
:103180009FEF980F9B8B882309F473CFC8010E948F
:103190005E0EF5CFC8010E945E0E1B8A6ACF412CDD
:1031A000512C89899A899827892798274816590682
:1031B00038F4C8010E945E0E8FEF481A580AF1CF0A
:1031C000EFEF8E1A9E0A8C149D0409F043CF26EF70
:1031D0003FEF95CF27EF3FEF92CF2AEF3FEF8FCF13
:1031E0002BEF3FEF8CCF65960FB6F894DEBF0FBE86
:1031F000CDBFDF91CF911F910F91FF90EF90DF90A6
:10320000CF90BF90AF909F908F907F906F905F9086
:103210004F903F902F9008952C9A08952C980895E0
:103220001F93CF93DF93182F60E270E043D4C82F31
:10323000D0E061E270E0812F3DD4DC2FCC279E01ED
:10324000282BC901DF91CF911F9108958EBD0000F9
:103250000DB407FEFDCF8EB50895CF92DF92EF92A9
:10326000FF920F931F93CF93DF93EC017A018B01B1
:103270006C01C40ED51ECC15DD0579F0CFDF8FE0D3
:10328000E5DF8D2FE3DF8C2FE1DF219680E0DEDFAD
:10329000F80181938F01C0DFEECFC701DF91CF919D
:1032A0001F910F91FF90EF90DF90CF900895CF92F4
:1032B000DF92EF92FF920F931F93CF93DF93EC0176
:1032C0007A018B016C01C40ED51ECC15DD0571F0A1
:1032D000A5DF80EFBBDF8D2FB9DF8C2FB7DF219605
:1032E000F80181918F01B2DF97DFEFCFC701DF9146
:1032F000CF911F910F91FF90EF90DF90CF900895A5
:103300001F93CF93DF931F921F92CDB7DEB7182F75
:103310006A83998383DF80EF99DF9981892F96DF14
:10332000812F94DF6A81862F91DF76DF81E00F9015
:103330000F90DF91CF911F910895EF92FF921F930D
:10334000CF93DF93182F7B0180E590E0EBD368E209
:1033500070E0812FAFD3C82FD0E069E270E0812FF9
:10336000A9D3DC2FCC27BE01682B21E030E0A701D8
:10337000812F88D7D6D381E090E0DF91CF911F9144
:10338000FF90EF900895FF920F931F93CF93DF93D9
:10339000F82E80E590E0C6D3C0E0D0E08F2DB1DC00
:1033A0008C01892B19F08F2DACDCEC01C017D107F3
:1033B000A9F7B7D3CE01DF91CF911F910F91FF9065
:1033C0000895AF92BF92DF92EF92FF920F931F93F7
:1033D000CF93DF93D82E7B018A0180E590E0A2D3C2
:1033E000C0E0D0E08D2D8DDC5C01892B19F08D2D96
:1033F00088DCEC01CA15DB05A9F7209791F463E09E
:1034000070E08D2D57D38431A9F1882399F1C1E063
:10341000D0E08C3111F4C0E0D0E0D195C195D10954
:1034200029C00C171D070CF4E8011C161D0614F525
:1034300068E270E08D2D3ED3082F10E069E270E065
:103440008D2D38D3102F0027082B9E01A701B8011E
:103450008D2D18D70C0F1D1F412F68E270E08D2DA8
:1034600020D3402F69E270E08D2D1BD360E470E023
:103470008D2DE7D656D3CE01DF91CF911F910F91BD
:10348000FF90EF90DF90BF90AF900895CF93C82F3B
:1034900080E590E047D360E170E08C2FD2D64FEF0B
:1034A00062E070E08C2FFDD2CF913BC3FF920F936F
:1034B0001F93CF93DF931F921F92CDB7DEB7F82EE5
:1034C0008A012A836983E2DF80E590E02BD32A8199
:1034D0006981462F422B60E070E08F2DE2D201150A
:1034E000110551F40091F8061091F9060F5F1F4F76
:1034F0001093F9060093F806412F64E070E08F2DD9
:10350000D0D2402F65E070E08F2DCBD261E070E02B
:103510008F2D97D606D381E00F900F90DF91CF913A
:103520001F910F91FF9008950895CF93DF931F92FD
:10353000CDB7DEB76983DC01ED91FC910280F381A8
:10354000E02D41E050E0BE016F5F7F4F19950F9075
:10355000DF91CF910895DC01ED91FC91068CF78D00
:10356000E02D199591E089270895862F089581E02F
:1035700086270895089580E090E00895CF93DF9323
:10358000FC0124852430D1F0EC010E945E108431CE
:1035900081F0882371F0883161F08C3161F4E88129
:1035A000F9810084F185E02DCE01199521E0892B68
:1035B00019F420E001C021E0822F01C080E0DF91FA
:1035C000CF910895CF92DF92EF92FF921F93CF9306
:1035D000DF93FC011485143071F1EC0180E590E07B
:1035E000A1D268E070E0812F2CD69BD20FD86B015E
:1035F0007C01CE010E945E10882399F061E070E0AA
:1036000080E090E095D702D8DC01CB018C199D09B0
:10361000AE09BF09883E9340A105B10550F38C85E2
:1036200035DFEC85F0E0EE0FFF1FE951F94F118215
:10363000108284E08C87DF91CF911F91FF90EF90F3
:10364000DF90CF9008950F931F93CF93DF931F9236
:10365000CDB7DEB78C01DC01ED91FC910084F185E2
:10366000E02D1995892B49F0BE016F5F7F4FF8015E
:10367000848563DE898190E002C08FEF9FEF0F9019
:10368000DF91CF911F910F910895FC01848599CE10
:10369000CF93DF931F92CDB7DEB741E050E0BE017C
:1036A0006F5F7F4FFC0184858CDE181619061CF4B1
:1036B000898190E002C08FEF9FEF0F90DF91CF9153
:1036C0000895FC018485843009F05DCE80E090E0AF
:1036D00008958F929F92AF92BF92CF92DF92EF9216
:1036E000FF920F931F93CF93DF936C015B017A01DD
:1036F000FC01C485C43041F481E090E0F60193837D
:10370000828380E090E048C08A014130584010F048
:1037100000E018E080E590E005D28C2F5AD64C01ED
:1037200063E070E08C2FC6D1D82FFBD1D73111F0D8
:10373000DC3121F48016910668F302C000E010E04D
:1037400080E590E0EFD19801A50160E070E08C2F5A
:10375000DFD560E270E08C2F74D562E070E08C2FD2
:10376000A9D184FD0FC063E070E08C2FA3D181113B
:1037700004C0D7D18C2F8ADEBFCFD3D180E590E0B3
:10378000D1D1EBCF40E162E070E08C2F8AD1C9D17A
:10379000012B09F4B1CFC701DF91CF911F910F9198
:1037A000FF90EF90DF90CF90BF90AF909F908F9061
:1037B0000895CF92DF92FF920F931F93CF93DF93E1
:1037C000FC012485243009F06AC06A01EB018C01F8
:1037D000F12C8F2DAAD1811103C0F801F48607C006
:1037E0008B7F8831D1F3F394F4E0FF12F2CFF8012C
:1037F0008485843009F453C020910A0230910B0271
:103800002F5F3F4F11F420E030EC30930B022093F8
:103810000A0240910A0250910B0220E061E046DE6C
:10382000F801F4848A818F3F51F48B818F3F91F4AA
:103830008C818F3F79F48D818F3F61F42DC0811190
:1038400009C08B81811106C08C81811103C08D81DB
:10385000882311F1C114D104F9F080E590E062D120
:10386000BE016E5F7F4F8F2D54D1B6018F2D42D197
:1038700064E070E08F2DE5D454D1C8010E945E1041
:10388000873181F061E070E080E090E051D6C801BE
:103890000E945E108111F1CF84E0F801848780E0FE
:1038A00090E002C081E090E0DF91CF911F910F91F5
:1038B000FF90DF90CF900895CF92DF92EF92FF922A
:1038C0000F931F93CF93DF93CDB7DEB7AF970FB6AC
:1038D000F894DEBF0FBECDBF7C016A010CED12E093
:1038E0001A8309831C861B8688EE93E0A0E0B0E073
:1038F0008D879E87AF87B88B8AE593E09A87898703
:10390000188F0F8B198E1A8E1B8E1C8E84E089A344
:103910001DA30CA31EA21FA218A619A6809107061C
:1039200090910806A0910906B0910A068CA79DA760
:10393000AEA7BFA78B839C83AD83BE8318861F82EF
:10394000AE014C5D5F4FCE010196F1D981309105FA
:10395000B1F4D701ED91FC910684F785E02D1BA70A
:103960000AA78EA19FA1A8A5B9A58CA79DA7AEA7C0
:10397000BFA7A601BE01665D7F4FC7011995AF962F
:103980000FB6F894DEBF0FBECDBFDF91CF911F9170
:103990000F91FF90EF90DF90CF900895CF93DF933A
:1039A000EC018AE893E099838883CE014C960E94CB
:1039B000C514CE0144960E94C514CE010E960E94F5
:1039C000C514CE0108960E94C514CE010296DF915F
:1039D000CF910C94C514CF93DF93EC0182E893E070
:1039E00099838883CE014A960E94C514CE014496DD
:1039F0000E94C514CE010E960E94C514CE010896F1
:103A00000E94C514CE010296DF91CF910C94C5148B
:103A10000C944D280C944D28CF93DF93EC01BEDF1E
:103A2000CE01DF91CF910C944D28CF93DF93EC0121
:103A3000D2DFCE01DF91CF910C944D28EF92FF920F
:103A40000F931F93CF93DF9300D000D0CDB7DEB795
:103A50008B017901BA01CE0101960E94011561E145
:103A600074E0CE0101960E943714B7010E944E14F3
:103A700060EE74E00E943714BC01C8010E946D140E
:103A8000CE0101960E94C51426960FB6F894DEBFAB
:103A90000FBECDBFDF91CF911F910F91FF90EF909F
:103AA00008959B0190E00496982F8827642F820F39
:103AB000931F26CC0F931F93CF93DF931F92CDB705
:103AC000DEB790E00496982F88278C01060F171F09
:103AD000A5DB8FE0BBDB812FB9DB802FB7DB80E07C
:103AE000B5DB898399DB89810F90DF91CF911F919D
:103AF0000F910895CF93DF93C82FD62F472F60E102
:103B000070E0CFDF4D2F61E170E08C2FDF91CF911E
:103B1000C8CF90E0982F882744E050E0845F9B4F07
:103B2000C6CB08958CBD9DBD0895CF93C82F80E569
:103B300090E0F8DF63E070E08C2FCF91BBCF089569
:103B40004F925F926F927F92AF92BF92CF92DF922D
:103B5000EF92FF921F93CF93DF93CDB7DEB7E99734
:103B60000FB6F894DEBF0FBECDBF7C0102960E9457
:103B7000661087EEC82E86E0D82E10E098EE492E0B
:103B800093E0592E612C712C2CE0A22E23E0B22E52
:103B90001C821B824D825E826F827886BA82A982E5
:103BA0001D87D6012D913D916D01F7018681978189
:103BB0002817390741F5CE0101960E945E10873122
:103BC00011F08C3101F5CE0101967BDD892BD9F006
:103BD0008B819C819CA38BA38D819E81AF81B885B5
:103BE0008DA39EA3AFA3B8A789859A85AB85BC8515
:103BF00089A79AA7ABA7BCA78CE093E09AA389A357
:103C00008D858DA712C01F5F143011F61CA21BA258
:103C100088EE93E0A0E0B0E08DA39EA3AFA3B8A789
:103C20008CE093E09AA389A31DA78DA5843009F4A5
:103C300059C082EE94E013D361EE74E0CE018E960B
:103C40000E940915CE01819699DC882309F43EC0B3
:103C5000CE01819636DD892B79F0CE01819618DD73
:103C600089831A8241E050E0BE016F5F7F4FCE0131
:103C70008E960E940A14ECCFBE01625D7F4FCE018A
:103C8000C4960E940115BE016C5C7F4FCE01019667
:103C90000E94A609CE01C4960E94C514D7011896A9
:103CA000ED91FC911997309739F0BE016F5D7F4F10
:103CB000CE010196199503C083EF94E0D0D2CE01D6
:103CC000819680DCCE01019686DEBCCF61E070E09B
:103CD00080E090E02DD48BE195E0C1D2CE018E96AC
:103CE0000E94C514E9960FB6F894DEBF0FBECDBF93
:103CF000DF91CF911F91FF90EF90DF90CF90BF9019
:103D0000AF907F906F905F904F9008950895449684
:103D10000C94B014EF92FF920F931F93CF93DF9305
:103D2000CDB7DEB72C970FB6F894DEBF0FBECDBF70
:103D30007C018B0161EE74E00E9409156FE275E071
:103D4000CE0101960E940915B8016E5F7F4FCE012A
:103D500001960E944E1460EE74E00E943714BC017C
:103D6000C7010E946D14CE0101960E94C51469E33B
:103D700075E0CE0101960E9409159801285F3F4F1A
:103D8000AE014F5F5F4FB701C80158DECE0101960B
:103D90000E94C51466E475E0CE0101960E940915E3
:103DA0009801225F3F4FAE014F5F5F4FB701C801DF
:103DB00045DECE0101960E94C514F801808D918DDB
:103DC000892B99F061E575E0CE0101960E940915F5
:103DD00098012C5E3F4FAE014F5F5F4FB701C801A6
:103DE0002DDECE0101960E94C514F801628D738DFF
:103DF00016161706E4F44AE0CE0107960E94CA148C
:103E00006DE575E0CE0101960E9409159E01295FBE
:103E10003F4FAE014F5F5F4FB701C8010FDECE01CC
:103E200001960E94C514CE0107960E94C51460EE4B
:103E300074E0C7010E945F14B801645E7F4FCE0139
:103E400001960E94011560EE74E0CE0101960E9479
:103E50003714BC01C7010E946D14CE0101960E9467
:103E6000C514C7012C960FB6F894DEBF0FBECDBFA8
:103E7000DF91CF911F910F91FF90EF9008954C9695
:103E80000C94B0140E960C94B01408960C94B014C4
:103E900002960C94B014CF93DF93EC012AE833E040
:103EA000FC0121933193CF0161EE74E00E9409156A
:103EB00061EE74E0CE0108960E94091561EE74E08F
:103EC000CE010E960E94091561EE74E0CE01449673
:103ED0000E9409158FEF9FEF9B8F8A8F61EE74E030
:103EE000CE014C96DF91CF910C9409150F931F933F
:103EF000CF93DF9300D000D0CDB7DEB78C01CBDFFE
:103F00006EE374E0CE0101960E940915BE016F5F59
:103F10007F4FC801BDDFCE0101960E94C5146DE23E
:103F200074E0CE0101960E940915BE016F5F7F4FBC
:103F3000C801ABDFCE0101960E94C51468E374E0AE
:103F4000CE0101960E940915BE016F5F7F4FC80127
:103F500099DFCE0101960E94C514C80126960FB6BE
:103F6000F894DEBF0FBECDBFDF91CF911F910F91AF
:103F70000895EF92FF920F931F93CF93DF93CDB7E6
:103F8000DEB728970FB6F894DEBF0FBECDBF7B011A
:103F900060EE74E0CE0101964F8358870E940915A8
:103FA0004F815885BE016F5F7F4FC7010E94BB13D1
:103FB0008C010F5F1F4FCE0101960E94C514F701BF
:103FC000848195810817190710F00FEF1FEFC801C2
:103FD00028960FB6F894DEBF0FBECDBFDF91CF910C
:103FE0001F910F91FF90EF9008956F927F928F92A3
:103FF0009F92AF92BF92CF92DF92EF92FF920F9378
:104000001F93CF93DF93CDB7DEB762970FB6F894C7
:10401000DEBF0FBECDBF8C015B014A01612C712C4C
:104020006B0184E1C80ED11CA301B601C501A1DF5B
:104030007C018F3FEFEF9E0711F09C0105C0F50159
:10404000208D318D21503109A301B601CE01079693
:104050000E941D1561EE74E0CE010D960E940915B7
:1040600065E675E0CE0101960E94091540E050E03A
:10407000BE016F5F7F4FCE0107960E94BB133C01CC
:10408000CE0101960E94C51477FC19C0930140E04F
:1040900050E0BE01695F7F4FCE0101960E941D1561
:1040A000BE016F5F7F4FCE010D960E947314CE014B
:1040B00001960E94C514CE010D960E945C13B401B6
:1040C000CE010D960E94D813782ECE010D960E9437
:1040D000C5147720C9F161EE74E0C8010E9409158A
:1040E00065E675E0CE0101960E94091540E050E0BA
:1040F000BE016F5F7F4FCE0107960E94BB137C010C
:10410000CE0101960E94C514F7FC19C02B853C8591
:10411000A7014F5F5F4FBE01695F7F4FCE010196E0
:104120000E941D15BE016F5F7F4FC8010E9473146E
:10413000CE0101960E94C514C8010E945C13CE01F5
:1041400007960E94C51412C0BE01695F7F4FC60169
:104150000E946D14CE0107960E94C5143701F7FE28
:1041600063CF61EE74E0C8010E940915C801629630
:104170000FB6F894DEBF0FBECDBFDF91CF911F9178
:104180000F91FF90EF90DF90CF90BF90AF909F90F6
:104190008F907F906F90089590E0FC013197E2310D
:1041A000F10508F04DC08827EC57FF4F8F4FD8C658
:1041B000809180008F7703C0809180008F7D8093F5
:1041C0008000089580918000877FF9CF84B58F7734
:1041D00002C084B58F7D84BD08958091B0008F7733
:1041E00003C08091B0008F7D8093B00008958091CE
:1041F00090008F7707C0809190008F7D03C08091E1
:104200009000877F8093900008958091A0008F7721
:1042100007C08091A0008F7D03C08091A000877FA0
:104220008093A0000895809120018F7707C080912E
:1042300020018F7D03C080912001877F8093200122
:104240000895CF93C82F462F61E070E02ADC61E02B
:1042500070E08C2F2FDC8111FACFCF910895CF938E
:10426000DF93BC0188E695E00E947D15EC016FEDBF
:1042700074E088E695E00E947D158C0F9D1FDF910C
:10428000CF910895AF92BF92CF92DF92EF92FF92BB
:104290000F931F93CF93DF931F921F92CDB7DEB77B
:1042A0007A836983BA01A901E981FA81F770082F3D
:1042B00010E0000F111F0E5F184FD8018D919C91D7
:1042C0008E0F9F1F2E0F3F1F2130384098F07A012C
:1042D0005B0120E038E06901CE1ADF0AA6010E94E6
:1042E0002D19A7014C195D09B5016C0D7D1DF80153
:1042F000808191810F900F90DF91CF911F910F914D
:10430000FF90EF90DF90CF90BF90AF900C942D195D
:104310009F92AF92BF92CF92DF92EF92FF920F9354
:104320001F93CF93DF93982E8B015A01690164E2AA
:1043300070E0C0DBE82EF12C65E270E0892DBADB7D
:10434000FE2CEE24E82AE701C00FD11F9E01377032
:10435000E92CF12CC701880F991FAC014650594F29
:104360007A01FA0180819181820F931FA9014C0D7E
:104370005D1D4130584090F000E018E0021B130B27
:10438000A801B5010E945719A601401B510BB501A8
:10439000600F711FF7018081918102C0A601B501F4
:1043A0000E945719CC0DDD1D4D2F64E270E0892D60
:1043B00078DB4C2F65E270E0892DDF91CF911F9162
:1043C0000F91FF90EF90DF90CF90BF90AF909F90B4
:1043D00068CBFF920F931F93CF93DF93F82EC0E02B
:1043E000D0E08F2D0E9410198C01892B21F08F2D88
:1043F0000E941019EC01C017D10799F7CE01DF9187
:10440000CF911F910F91FF900895CF93DF93282FA5
:1044100030E0F901E05AFE4F8491F901E054FE4F7B
:10442000D491F901EA5FFD4FC491CC2389F0811149
:10443000B3DEEC2FF0E0EE0FFF1FEA5BFE4FA5911D
:10444000B491EC91ED2381E090E021F480E002C092
:1044500080E090E0DF91CF9108951F93CF93DF9399
:10446000282F30E0F901E05AFE4F8491F901E05421
:10447000FE4FD491F901EA5FFD4FC491CC23C1F006
:10448000162F811189DEEC2FF0E0EE0FFF1FE45DA7
:10449000FE4FA591B4918FB7F894111105C09C916E
:1044A000ED2FE095E92302C0EC91ED2BEC938FBF4B
:1044B000DF91CF911F910895CF93DF9390E0FC019E
:1044C000E054FE4F2491FC01EA5FFD4F8491882364
:1044D00061F190E0880F991FFC01EA55FE4FC591EC
:1044E000D491FC01E45DFE4FA591B491611109C026
:1044F0009FB7F8948881209582238883EC912E239E
:104500000BC0623061F49FB7F8943881822F809598
:1045100083238883EC912E2B2C939FBF06C08FB7EB
:10452000F894E8812E2B28838FBFDF91CF910895D7
:104530008F929F92AF92BF92CF92DF92EF92FF92B3
:104540006B017C010E94E1124B015C01C114D1049A
:10455000E104F104F1F00E94E112DC01CB018819C1
:104560009909AA09BB09883E9340A105B10570F3DA
:1045700021E0C21AD108E108F10888EE880E83E034
:10458000981EA11CB11CC114D104E104F10419F757
:10459000DDCFFF90EF90DF90CF90BF90AF909F90D6
:1045A0008F900895CF92DF92EF92FF920F931F9317
:1045B000CF93DF93CDB7DEB7C254D1090FB6F894CD
:1045C000DEBF0FBECDBFFC0182819381A481B58186
:1045D00023968CAF9DAFAEAFBFAF239721E023965C
:1045E0002FAF239723964CAD5DAD6EAD7FAD239776
:1045F0004BAB5CAB6DAB7EAB89AF9AAFABAFBCAF37
:104600008DA79EA7AFA7B8AB28AB4DA55EA56FA59C
:1046100078A94FA358A769A77AA72EAB4BA95CA985
:104620006DA97EA949A35AA36BA37CA38B8F9C8FF2
:10463000AD8FBE8F4CED52E05C8B4B8B3FEF3D8BD3
:104640003E8B3F8B188E5E874D872AA7CFA0D8A4BC
:10465000E9A4FAA4CF86D88AE98AFA8A2CA309A108
:104660001AA12BA13CA109871A872B873C875A8363
:1046700049838B839C83AD83BE836CE271E080E0D1
:1046800090E056DF1FB7F89480910A07811123C08C
:10469000EBE3F2E08491E5EFF1E09491E82FF0E0B4
:1046A000EE0FFF1FEA55FE4FA591B491EC91E9235F
:1046B00019F461E085E3D1DE61E085E3FDDE8CB5D0
:1046C00080618CBD8CB580648CBD61E084E3F4DED8
:1046D00061E083E3F1DE80910A078F5F80930A0730
:1046E0001FBF249A80E590E01DDA60E880E090E04A
:1046F0000E94801965E58BE190E00E94801965E5D4
:104700008AE190E00E9480190CDA80E090E49093B6
:10471000FB068093FA0680E090E69093030780936F
:10472000020780E098E49093FD068093FC0680E009
:1047300098E6909305078093040780E090E59093B6
:10474000FF068093FE0680E090E790930707809332
:10475000060780E098E5909301078093000780E0CA
:1047600098E7909309078093080780E590E0DAD9ED
:1047700046E050E06CE072E089E090E00E9457195A
:1047800044E050E0BE016D5F7F4F8FE090E00E94FB
:10479000571944E050E0BE01615F7F4F81E090E037
:1047A0000E94571944E050E0BE016B5E7F4F85E0E8
:1047B00090E00E945719B5D981E08C8789859A8548
:1047C000AB85BC858093070690930806A0930906E5
:1047D000B0930A06CE5BDF4F0FB6F894DEBF0FBE74
:1047E000CDBFDF91CF911F910F91FF90EF90DF90A0
:1047F000CF90089583E996E00E94780187EA96E0D9
:104800000E94700181EB96E00E9470018BEB96E0B4
:104810000E94700185EC96E00E94680183E396E0B7
:104820000E94C51489E396E00E94C5148FE396E0C8
:104830000E94C51485E496E00E94C5148BE496E0BE
:104840000E94C51481E596E00E94C51487E596E0B4
:104850000C94C514AF92BF92CF92DF92EF92FF9269
:104860000F931F93CF93DF9300D000D0CDB7DEB767
:10487000EDE5F6E00CED12E0118300831282138265
:1048800014821582E8E6F5E01382128288EE93E046
:10489000A0E0B0E084839583A683B7838EE892E09E
:1048A0009183808385EC90E09587848784EC90E009
:1048B0009787868780EC90E0918B808B81EC90E0ED
:1048C000938B828B82EC90E0958B848B86EC90E0CE
:1048D000978B868B118E128E138E148EE3E6F6E084
:1048E000118300831282138214821582E9E6F6E0B6
:1048F000118300831282138214821582EFE6F6E0A0
:10490000118300831282138214821582E5E7F6E098
:10491000118300831282138214821582E5E0F6E08F
:10492000118300831282138214821582EDE0F6E077
:10493000118300831282138214821582EBE7F6E062
:10494000118300831282138214821582E1E8F6E05B
:10495000118300831282138214821582E7E8F6E045
:1049600011830083128213821482158268E774E037
:1049700087E596E00E94091567EF73E081E596E010
:104980000E940915E1EEF6E0118300831282138282
:10499000148215826CE774E08BE496E00E9409159E
:1049A00061E874E085E496E00E940915EBEDF6E01D
:1049B0001183008312821382148215826CE774E0E3
:1049C0008FE396E00E94091561E874E089E396E0C0
:1049D0000E940915EDE8F6E011830083128213822C
:1049E00014821582E5EDF6E01183008312821382B2
:1049F0001482158267E575E083E396E00E9409154D
:104A0000EFECF6E011830083128213821482158288
:104A1000EDE2F6E01183008380EC828388EA8383F1
:104A200081E0848381EB8583E3E2F6E024ED32E0EC
:104A3000318320831582148282EB92E093838283F8
:104A400040E550E05783468311861086E9E1F6E0A1
:104A500031832083158214829383828380E99FE1CE
:104A6000978386831186108665E874E0CE010196EF
:104A70000E9409154AE050E0BE016F5F7F4F85EC50
:104A800096E00E940C0BCE0101960E94C5146DE8C1
:104A900074E0CE0101960E94091521E04BE050E040
:104AA000BE016F5F7F4F8BEB96E00E94D10ACE0173
:104AB00001960E94C51464E974E0CE0101960E943B
:104AC000091521E04CE050E0BE016F5F7F4F81EBA4
:104AD00096E00E94D10ACE0101960E94C5146BE9AE
:104AE00074E0CE0101960E94091521E04DE050E0EE
:104AF000BE016F5F7F4F87EA96E00E94D10ACE0128
:104B000001960E94C51462EA74E0CE0101960E94EB
:104B1000091588EEA82E83E0B82EC12CD12C98EE72
:104B2000E92E93E0F92E00E010E020E030E048E0CC
:104B300050E0BE016F5F7F4F83E996E00E94410B1A
:104B4000CE0101960E94C514E3E1F6E08CEC92E000
:104B50009183808380E092E09383828385E090E07C
:104B60009583848326960FB6F894DEBF0FBECDBF23
:104B7000DF91CF911F910F91FF90EF90DF90CF9039
:104B8000BF90AF900895CF93DF9300D000D0CDB702
:104B9000DEB7789484B5826084BD84B5816084BDBD
:104BA00085B5826085BD85B5816085BD80916E00CB
:104BB000816080936E0010928100809181008260FC
:104BC0008093810080918100816080938100809139
:104BD00080008160809380008091B1008460809328
:104BE000B1008091B00081608093B000809191000D
:104BF0008260809391008091910081608093910008
:104C0000809190008160809390008091A1008260EB
:104C10008093A1008091A10081608093A100809188
:104C2000A00081608093A000809121018260809328
:104C300021018091210181608093210180912001D7
:104C400081608093200180917A00846080937A0053
:104C500080917A00826080937A0080917A008160EE
:104C600080937A0080917A00806880937A00109215
:104C7000C100E0917805F091790582E08083E091B0
:104C80007405F09175051082E0917605F091770535
:104C90008FEC808310928005E0917C05F0917D057A
:104CA00086E08083E0917A05F0917B0580818061C8
:104CB0008083E0917A05F0917B0580818860808314
:104CC000E0917A05F0917B05808180688083E09196
:104CD0007A05F0917B0580818F7D80830CED12E059
:104CE0001A83098380912F0690913006A091310696
:104CF000B09132068B839C83AD83BE83CE01019637
:104D000051DC82ED98E090932C0680932B0685E28F
:104D100096E00E944E1186E898E0909322068093D8
:104D200021068BE196E00E944E1161ED74E088E669
:104D300095E00E947D151A8309831B821C821D82C7
:104D40001E8280E590E00E94921D44E050E0BE018A
:104D50006D5F7F4F8FE090E00E942D190E94911DA2
:104D600068E675E0CE0101960E94DA156FED74E0F9
:104D700088E695E00E947D1583E296E00E94A01DE2
:104D800089E196E00E94A01D0E941E0DF5CF1F93A1
:104D9000FC0199278827BC01E89411911032E9F3AE
:104DA000193010F01E30C8F31B3249F01D3241F4A7
:104DB000689405C026D0610F711D811D911D119150
:104DC00010531A30B8F33EF4909580957095619524
:104DD0007F4F8F4F9F4F1F9108954532510518F413
:104DE000423008F004C0FB011082CB010895BB27BC
:104DF0004A3031F4992322F4BDE2909581959F4F7A
:104E000016C0592F482F372F262F660F771F881F60
:104E1000991F660F771F881F991F620F731F841FCA
:104E2000951F660F771F881F991F0895BB27FB01E9
:104E30005527AA27880F991FAA1FA41710F0A41B93
:104E400083955051B9F7A05DAA3308F0A95DA193ED
:104E5000009779F7B111B1931192CB0108C091116C
:104E600016C0803219F089508550D0F70895DC01C2
:104E7000FC01672F71917723E1F7329704C07C9191
:104E80006D9370836291AE17BF07C8F30895992799
:104E900088270895052E97FB16F400940FD057FD30
:104EA00005D01ED007FC02D046F408C050954095AE
:104EB000309521953F4F4F4F5F4F089590958095C6
:104EC000709561957F4F8F4F9F4F08952BD0A59F71
:104ED000900DB49F900DA49F800D911D11240895F5
:104EE000A1E21A2EAA1BBB1BFD010DC0AA1FBB1FEE
:104EF000EE1FFF1FA217B307E407F50720F0A21B60
:104F0000B30BE40BF50B661F771F881F991F1A94CC
:104F100069F760957095809590959B01AC01BD01F6
:104F2000CF010895A29FB001B39FC001A39F700D50
:104F3000811D1124911DB29F700D811D1124911DA1
:104F40000895DB018F939F93C1DFBF91AF91A29F23
:104F5000800D911DA39F900DB29F900D1124089577
:104F6000EE0FFF1F881F8BBF0790F691E02D19945D
:104F7000CF93DF938230910510F482E090E0E091CE
:104F80000D07F0910E0720E030E0C0E0D0E0309750
:104F900011F14081518148175907C0F0481759074E
:104FA00061F482819381209719F09B838A832BC0BF
:104FB00090930E0780930D0726C02115310519F037
:104FC0004217530718F49A01BE01DF01EF01028076
:104FD000F381E02DDCCF2115310509F1281B390BB8
:104FE0002430310590F412968D919C9113976115A0
:104FF000710521F0FB019383828304C090930E0717
:1050000080930D07FD01329644C0FD01E20FF31FAE
:1050100081939193225031092D933C933AC0209172
:105020000B0730910C07232B41F42091140230918F
:10503000150230930C0720930B0720911202309138
:1050400013022115310541F42DB73EB740911602E8
:1050500050911702241B350BE0910B07F0910C07C0
:10506000E217F307A0F42E1B3F0B2817390778F03F
:10507000AC014E5F5F4F2417350748F04E0F5F1F9E
:1050800050930C0740930B078193919302C0E0E08B
:10509000F0E0CF01DF91CF9108950F931F93CF934D
:1050A000DF93009709F48CC0FC01329713821282BF
:1050B00000910D0710910E070115110581F4208153
:1050C0003181820F931F20910B0730910C07281715
:1050D000390779F5F0930C07E0930B0771C0D801FD
:1050E00040E050E0AE17BF0750F412962D913C916E
:1050F0001397AD012115310509F1D901F3CF9D01B8
:10510000DA013383228360817181860F971F8217B2
:10511000930769F4EC0128813981260F371F2E5F30
:105120003F4F318320838A819B8193838283452BE8
:1051300029F4F0930E07E0930D0742C01396FC93F9
:10514000EE931297ED01499159919E01240F351F5D
:10515000E217F30771F480819181840F951F029605
:1051600011969C938E938281938113969C938E9338
:105170001297E0E0F0E0D80112968D919C91139780
:10518000009719F0F8018C01F6CF8D919C91980150
:105190002E5F3F4F820F931F20910B0730910C071A
:1051A0002817390769F4309729F410920E071092E6
:1051B0000D0702C01382128210930C0700930B0795
:1051C000DF91CF911F910F9108956F927F928F92EF
:1051D0009F92AF92BF92CF92DF92EF92FF920F9386
:1051E0001F93CF93DF93EC01009781F4CB01DF9104
:1051F000CF911F910F91FF90EF90DF90CF90BF90D4
:10520000AF909F908F907F906F90B2CEFC01E60F91
:10521000F71F9C0122503109E217F30708F4A8C0D8
:10522000D9010D911C91119706171707A8F00530A9
:10523000110508F49BC0C80104978617970708F466
:1052400095C002501109061B170B019311936D9322
:105250007C93CF0122DF8AC05B01A01AB10A4C0106
:10526000800E911EA0910D07B0910E0740E050E016
:10527000E12CF12C109709F44AC0A815B905D1F515
:105280006D907C901197630182E0C80ED11CCA1406
:10529000DB0480F1A3014A195B096A0182E0C80EB0
:1052A000D11C1296BC9012971396AC91B5E0CB1618
:1052B000D10440F0B282A38351834083D9016D931E
:1052C0007C930AC00E5F1F4FC301800F911FF9012D
:1052D00091838083EB2DFA2FE114F10431F0D70193
:1052E0001396FC93EE93129741C0F0930E07E09350
:1052F0000D073CC08D919C9111974817590708F4F0
:10530000AC017D0112960D90BC91A02DB3CF809180
:105310000B0790910C0788159905E1F4461757077C
:10532000C8F48091120290911302009741F48DB756
:105330009EB74091160250911702841B950BE817F7
:10534000F907B0F4F0930C07E0930B07F9017183B0
:1053500060830CC0CB010CDE7C01009749F0A801F2
:10536000BE011BD0CE0199DEC70104C0CE0102C030
:1053700080E090E0DF91CF911F910F91FF90EF902F
:10538000DF90CF90BF90AF909F908F907F906F9065
:10539000089581E090E0F89433C0FB01DC0102C085
:1053A00001900D9241505040D8F70895FB01DC0167
:1053B0008D91019080190110D9F3990B0895FB018B
:1053C000DC0101900D920020E1F70895FB0151915D
:1053D0005523A9F0BF01DC014D9145174111E1F7BB
:1053E00059F4CD010190002049F04D914015411133
:1053F000C9F3FB014111EFCF81E090E001970895DF
:1054000011E0C7E2D1E000E005C0802FFE01A8DD79
:105410002196011DC832D10780E00807B1F7F89442
:02542000FFCFBC
:10542200C506BB06B106A706930600C0DEADBEEFF9
:10543200FEED00000F078000000000007801640606
:10544200A907F101B20114051A0365010D038E07C4
:1054520000066D0661010000000068015B06A907F5
:10546200F101B2014D04A1025E0199015D01000644
:1054720027020000000017121712A907F101B2015A
:105482001712171217121712171200060000000047
:1054920070015206A907F101B201860335025A01D1
:1054A2008001C501000631021D02000000007A12CF
:1054B200BB11E611C012120DF51109120000000015
:1054C2001712BB11BB1ABA1A1712171217120000C1
:1054D20000008E0DDF10BB1ABA1A4E110000000038
:1054E2001712BB11BB1ABA1A000000009F1D0A1D39
:1054F20000000000861E081D00000000DA150000F2
:105502000000171201005E000000000000001712E8
:105512001712BB1A17121712171217121712171295
:10552200171217121712171200000000951A691BA2
:10553200BB1A941A611B481B231BD91B5C1C451BFD
:10554200E21ABE1AAF0DB71AB51AA40DAB1A0000B3
:10555200000017121712BB1A17121712171217127E
:1055620017128C0D17121712171217121712171281
:1055720017121712171200000000570DE00EBB1A87
:10558200560D6D0D5E0E260E1010B70DFB0F180F87
:10559200890F510F870E3F0E850D750D710D00009D
:1055A2000000EB1C151D00000000CE1C0C1D446900
:1055B200676974616C204F757470757420220022C3
:1055C2002028002920697320004469676974616C8E
:1055D20020496E707574202200416E616C6F6720E5
:1055E2004F75747075742022006C6162656C007472
:1055F200797065004449474954414C5F4F555450B6
:1056020055540070696E007B0A007D0A00444947C8
:105612004954414C5F494E50555400414E414C4F04
:10562200475F4F5554505554006D696E006D617857
:10563200003A20002C00343035204D6574686F64C8
:10564200204E6F7420416C6C6F77656400746578CE
:10565200742F706C61696E00636C6F736500323019
:1056620030204F4B00746578742F68746D6C003C69
:1056720021444F43545950452048544D4C3E0A0052
:105682003C68746D6C3E0A003C6272202F3E003C06
:105692002F68746D6C3E0A004745540048494748DC
:1056A200004C4F570053776974636831004C616D49
:1056B200706531004C616D706532004C616D7065D2
:1056C200330044696D6D657231002F0022636F6E85
:1056D20066696775726174696F6E223A205B0A00AF
:1056E2005D0A00343034204E6F7420466F756E644C
:1056F2000073657276657220697320617420000DF3
:105702000A00436C69656E7420636F6E6E65637424
:105712006564004E6D5365727665723A3A68616EE1
:10572200646C655265717565737428293A20556EEB
:105732006B6E6F776E205665726200636C69656E80
:105742007420646973636F6E6E6563746564004888
:105752005454502F312E312000436F6E74656E7495
:105762002D5479706500436F6E6E656374696F6E58
:105772000052657475726E56616C7565005265668D
:0857820072657368003A000033
:00000001FF
