:1000000027C1000056C1000054C1000052C10000C9
:1000100050C100004EC100004CC100004AC10000A8
:1000200048C1000046C1000044C1000042C10000B8
:1000300040C100003EC100003CC100003AC10000C8
:1000400038C1000036C1000034C1000032C10000D8
:1000500030C100002EC100002CC100000C94A40F80
:1000600028C100000C94DD120C94B41222C10000CF
:1000700020C100001EC100001CC100001AC1000008
:1000800018C1000016C1000014C1000012C1000018
:1000900010C100000EC100000CC100000AC1000028
:1000A00008C1000006C1000004C1000002C1000038
:1000B00000C10000FEC00000FCC00000FAC000004B
:1000C000F8C00000F6C00000F4C00000F2C000005C
:1000D000F0C00000EEC00000ECC00000EAC000006C
:1000E000E8C00000651A6A1A6F1A791A831AFC1A96
:1000F0008D1A951A9D1AA71AB11ABB1ACA1AD41AC0
:10010000FC1ADE1AE81AF21A4420472036203A2058
:1001100040207E204B204F20552059205D20632019
:1001200067206B207E20712075207920000022003E
:10013000250028002B002E003100340002010000B1
:10014000050108010B010000200023002600290002
:100150002C002F00320000010000030106010901FC
:1001600000000A0B02090C0D0E0807030401000031
:10017000000000000000000000000000000000007F
:10018000000000000000000000000000121110003C
:10019000000000000000000000000000000000005F
:1001A00000000000000000002100240027002A00B9
:1001B0002D003000330001010000040107010A0195
:1001C0000102102020080810204010204080020169
:1001D000020108040201010204081020408080404E
:1001E000201008040201800402018040201008044D
:1001F00002010804020101020408102040800102EB
:1002000004081020408005050505070508080808B2
:10021000020202020A0A080804040404010101019E
:100220000101010103030303030303030407070799
:100230000C0C0C0C0C0C0C0C02020202060606063E
:10024000060606060B0B0B0B0B0B0B0B9223622304
:1002500011241FBECFEFD1E2DEBFCDBF00E00CBF47
:1002600015E0A0E0B2E0EEEEF2E500E00BBF02C068
:1002700007900D92A039B107D9F727E0A0E9B5E0C2
:1002800001C01D92A733B207E1F711E0C7E2D1E048
:1002900000E006C021970109802FFE010E94162769
:1002A000C632D10780E00807A9F70E9429250C94DF
:1002B0006629A6CE80E090E008950895CF93DF935D
:1002C000EC018CE692E099838883CE014C960E94E3
:1002D0005711CE0144960E945711CE010E960E94EE
:1002E0005711CE0108960E945711CE010296DF9158
:1002F000CF910C945711CF93DF93EC0184E692E0F9
:1003000099838883CE014A960E945711CE01449664
:100310000E945711CE010E960E945711CE010896E9
:100320000E945711CE010296DF91CF910C94571184
:1003300020E332E0FC0121933193CF010C9457115B
:100340000C94B3270C94B327CF93DF93EC01B6DF63
:10035000CE01DF91CF910C94B327CF93DF93EC01C3
:10036000CADFCE01DF91CF910C94B327CF93DF93F7
:10037000EC01DEDFCE01DF91CF910C94B327CF9358
:10038000DF93EC01DB01ED91FC910688F789E02D0C
:10039000CB011995811103C06DE676E002C063E7D9
:1003A00076E0CE010E949311CE01DF91CF910895A6
:1003B000EF92FF920F931F93CF93DF9300D000D063
:1003C000CDB7DEB78B017901BA01CE0101960E944B
:1003D000931164EC73E0CE0101960E94C910B7013D
:1003E0000E94E0106FEE74E00E94C910BC01C801C9
:1003F0000E94FF10CE0101960E94571126960FB65B
:10040000F894DEBF0FBECDBFDF91CF911F910F914A
:10041000FF90EF900895EF92FF920F931F93CF9369
:10042000DF93CDB7DEB768970FB6F894DEBF0FBE87
:10043000CDBF7C018B01DB01ED91FC910088F1893E
:10044000E02DCE0143961995F801608571854AE04B
:10045000CE010D960E945C11D801ED91FC910084B3
:10046000F185E02DB801CE01079619956AE973E090
:10047000CE0101960E949B11BE01695F7F4FCE01A4
:1004800001960E94E0106BEA73E00E94C910BE0161
:10049000635F7F4F0E94E0106FEA73E00E94C91013
:1004A000BE016D5E7F4F0E94E010BC01C7010E943B
:1004B0009311CE0101960E945711CE0107960E941A
:1004C0005711CE010D960E945711CE0143960E94FE
:1004D0005711C70168960FB6F894DEBF0FBECDBFA7
:1004E000DF91CF911F910F91FF90EF900895EF92C0
:1004F000FF920F931F93CF93DF93CDB7DEB72C9767
:100500000FB6F894DEBF0FBECDBF8C017B0160EF4C
:1005100074E00E949B1165EB73E0C8010E94F1102A
:10052000D701ED91FC910084F185E02DB701CE015A
:100530000796199568EB73E0CE0101960E949B1116
:10054000BE01695F7F4FCE0101960E94E0106EE10F
:1005500075E00E94C910BC01C8010E94FF10CE01C5
:1005600001960E945711CE0107960E94571160EC28
:1005700073E0C8010E94F11067EC73E0C8010E94AB
:10058000F110F701608571854AE0CE0107960E945F
:100590005C1168ED73E0CE0101960E949B11BE01D3
:1005A000695F7F4FCE0101960E94E0106EE175E019
:1005B0000E94C910BC01C8010E94FF10CE01019623
:1005C0000E945711CE0107960E945711D701ED9155
:1005D000FC910088F189E02DB701CE0107961995AD
:1005E0006EED73E0CE0101960E949B11BE01695F22
:1005F0007F4FCE0101960E94E0106FEE74E00E94E2
:10060000C910BC01C8010E94FF10CE0101960E94D2
:100610005711CE0107960E94571163EE73E0C8018F
:100620000E94F110C8012C960FB6F894DEBF0FBEE1
:10063000CDBFDF91CF911F910F91FF90EF90089563
:10064000EF92FF920F931F93CF93DF93CDB7DEB757
:1006500028970FB6F894DEBF0FBECDBF7B016FEEBB
:1006600074E0CE0101964F8358870E949B114F8101
:100670005885BE016F5F7F4FC7010E944D108C01EE
:100680000F5F1F4FCE0101960E945711F701848121
:1006900095810817190710F00FEF1FEFC801289672
:1006A0000FB6F894DEBF0FBECDBFDF91CF911F9183
:1006B0000F91FF90EF9008950F931F93CF93DF93C7
:1006C000EC018B0163E776E0C8010E946A10882381
:1006D00039F0E881F9810488F589E02D61E00DC0E9
:1006E0006DE676E0C8010E946A10882361F0E88117
:1006F000F9810488F589E02D60E0CE01DF91CF918A
:100700001F910F911994DF91CF911F910F9108952F
:100710004F925F926F927F928F929F92AF92BF9211
:10072000CF92DF92EF92FF920F931F93CF93DF93BD
:10073000CDB7DEB762970FB6F894DEBF0FBECDBF60
:100740007C018B0124E632E0FC0121933193CF013F
:100750000E9493114701F8E08F0E911C60EF74E046
:10076000C4010E949B1157018EE0A80EB11C60EFDE
:1007700074E0C5010E949B113701E4E16E0E711C0B
:1007800060EF74E0C3010E949B112701FAE14F0E54
:10079000511C60EF74E0C2010E949B11B801CE01B0
:1007A0000D960E94931140E050E0BE01635F7F4FC1
:1007B000C70146DF8C010F3F8FEF180711F098013A
:1007C00004C029893A892150310940E050E0BE0136
:1007D000635F7F4FCE0107960E94AF116BE374E019
:1007E000CE0101960E949B1140E050E0BE016F5F78
:1007F0007F4FCE0107960E944D106C01CE010196ED
:100800000E945711960140E050E0BE01695F7F4FA2
:10081000CE0101960E94AF11BE016F5F7F4FC401F0
:100820000E940511CE0101960E945711EFEFCE1ADA
:10083000DE0A6BE374E0CE0101960E949B11A601D3
:10084000BE016F5F7F4FCE0107960E944D104C0195
:10085000CE0101960E9457119401A601BE01695F65
:100860007F4FCE0101960E94AF11BE016F5F7F4F97
:10087000C5010E940511CE0101960E94571117FD76
:1008800029C0A801BE01635F7F4FC701D9DE6C019B
:100890008F3FFFEF9F0711F09C0104C029893A891F
:1008A00021503109A801BE01635F7F4FCE0101963F
:1008B0000E94AF118D819E81892B41F1BE016F5F36
:1008C0007F4FC3010E94FF10CE0101960E94571175
:1008D0008601D5CF17FD25C0A801BE01635F7F4FFC
:1008E000C701AEDE6C018FEFC816D806A9F09601DD
:1008F000A801BE01635F7F4FCE0101960E94AF1138
:10090000BE016F5F7F4FC2010E94FF10CE010196B2
:100910000E9457118601DECF29893A892150310979
:10092000E7CFCE0107960E945711CE010D960E9487
:10093000571162960FB6F894DEBF0FBECDBFDF91A0
:10094000CF911F910F91FF90EF90DF90CF90BF90CC
:10095000AF909F908F907F906F905F904F90089591
:10096000FC0180850E94692121E0892B09F420E0A7
:10097000822F0895FC0180850C9491219B0190E0C9
:100980000496982F8827642F820F931F0C941616B5
:100990000F931F93CF93DF931F92CDB7DEB790E0F5
:1009A0000496982F88278C01060F171F0E94A21506
:1009B0008FE00E94BC15812F0E94BC15802F0E94E1
:1009C000BC1580E00E94BC1589830E94A015898116
:1009D0000F90DF91CF911F910F910895CF93DF93E7
:1009E000C82FD62F472F60E170E0C8DF4D2F61E19F
:1009F00070E08C2FDF91CF91C1CF90E0982F8827A6
:100A000044E050E0845F9B4F0C94ED1508958CBD3D
:100A10009DBD0895CF93C82F80E590E0F8DF63E097
:100A200070E08C2FCF91B4CF08954F925F926F9268
:100A30007F92AF92BF92CF92DF92EF92FF921F937D
:100A4000CF93DF93CDB7DEB7E9970FB6F894DEBF4B
:100A50000FBECDBF7C010296CBD78FE0C82E87E0BA
:100A6000D82E10E098EE492E93E0592E612C712C6F
:100A700022EFA22E22E0B22E1C821B824D825E82C9
:100A80006F827886BA82A9821D87D6012D913D9109
:100A90006D01F701868197812817390741F5CE014D
:100AA00001969FD7873111F08C3109F5CE0101965F
:100AB0000E94A91E892BD9F08B819C819CA38BA3BA
:100AC0008D819E81AF81B8858DA39EA3AFA3B8A76A
:100AD00089859A85AB85BC8589A79AA7ABA7BCA752
:100AE00082EF92E09AA389A38D858DA712C01F5F24
:100AF000143011F61CA21BA288EE93E0A0E0B0E037
:100B00008DA39EA3AFA3B8A782EF92E09AA389A377
:100B10001DA78DA5843009F460C086EE93E00E9485
:100B20008F2060EF74E0CE018E960E949B11CE0163
:100B300081960E94FF1D882309F441C0CE01819651
:100B40000E94A91E892B81F0CE0181960E948F1EE2
:100B500089831A8241E050E0BE016F5F7F4FCE0172
:100B60008E960E949C10EACFBE01625D7F4FCE013F
:100B7000C4960E949311BE016C5C7F4FCE0101961A
:100B8000C7DDCE01C4960E945711D7011896ED918A
:100B9000FC911997309739F0BE016F5D7F4FCE0100
:100BA0000196199504C087EF93E00E948F20CE0133
:100BB00081960E94231ECE0101969DDBB8CF61E095
:100BC00070E080E090E00E94FC218FE194E00E94C0
:100BD0008F20CE018E960E945711E9960FB6F89499
:100BE000DEBF0FBECDBFDF91CF911F91FF90EF9081
:100BF000DF90CF90BF90AF907F906F905F904F90BD
:100C00000895089544960C944211EF92FF920F9329
:100C10001F93CF93DF93CDB7DEB72C970FB6F89421
:100C2000DEBF0FBECDBF7C018B0160EF74E00E9480
:100C30009B1163E374E0CE0101960E949B11B80101
:100C40006E5F7F4FCE0101960E94E0106FEE74E060
:100C50000E94C910BC01C7010E94FF10CE0101967D
:100C60000E9457116DE374E0CE0101960E949B1122
:100C70009801285F3F4FAE014F5F5F4FB701C8013A
:100C800097DBCE0101960E9457116AE474E0CE0111
:100C900001960E949B119801225F3F4FAE014F5F6A
:100CA0005F4FB701C80184DBCE0101960E94571146
:100CB000F801808D918D892B99F065E574E0CE0166
:100CC00001960E949B1198012C5E3F4FAE014F5F31
:100CD0005F4FB701C8016CDBCE0101960E9457112E
:100CE000F801628D738D16161706E4F44AE0CE0102
:100CF00007960E945C1161E674E0CE0101960E94A5
:100D00009B119E01295F3F4FAE014F5F5F4FB701BF
:100D1000C8014EDBCE0101960E945711CE01079605
:100D20000E9457116FEE74E0C7010E94F110B801E4
:100D3000645E7F4FCE0101960E9493116FEE74E0C6
:100D4000CE0101960E94C910BC01C7010E94FF108C
:100D5000CE0101960E945711C7012C960FB6F89448
:100D6000DEBF0FBECDBFDF91CF911F910F91FF90DE
:100D7000EF9008954C960C9442110E960C944211EB
:100D800008960C94421102960C944211CF93DF9373
:100D9000EC012CE632E0FC0121933193CF0160EFAE
:100DA00074E00E949B1160EF74E0CE0108960E94EF
:100DB0009B1160EF74E0CE010E960E949B1160EFD4
:100DC00074E0CE0144960E949B118FEF9FEF9B8FA2
:100DD0008A8F60EF74E0CE014C96DF91CF910C9436
:100DE0009B110F931F93CF93DF9300D000D0CDB70B
:100DF000DEB78C01CBDF69E674E0CE0101960E947C
:100E00009B11BE016F5F7F4FC801BDDFCE01019610
:100E10000E94571160E774E0CE0101960E949B1179
:100E2000BE016F5F7F4FC801ABDFCE0101960E940C
:100E300057116BE774E0CE0101960E949B11BE0131
:100E40006F5F7F4FC80199DFCE0101960E94571155
:100E5000C80126960FB6F894DEBF0FBECDBFDF9156
:100E6000CF911F910F9108956F927F928F929F92D1
:100E7000AF92BF92CF92DF92EF92FF920F931F93A8
:100E8000CF93DF93CDB7DEB762970FB6F894DEBF8E
:100E90000FBECDBF8C015B014A01612C712C6B012F
:100EA00084E1C80ED11CA301B601C501C9DB7C01D8
:100EB0008F3FEFEF9E0711F09C0105C0F501208DDB
:100EC000318D21503109A301B601CE0107960E9450
:100ED000AF1160EF74E0CE010D960E949B1161E8A6
:100EE00074E0CE0101960E949B1140E050E0BE01EB
:100EF0006F5F7F4FCE0107960E944D103C01CE01DF
:100F000001960E94571177FC19C0930140E050E010
:100F1000BE01695F7F4FCE0101960E94AF11BE01F5
:100F20006F5F7F4FCE010D960E940511CE01019695
:100F30000E945711CE010D960E94EE0FB401CE0112
:100F40000D960E946A10782ECE010D960E945711C0
:100F50007720C9F160EF74E0C8010E949B1161E83D
:100F600074E0CE0101960E949B1140E050E0BE016A
:100F70006F5F7F4FCE0107960E944D107C01CE011E
:100F800001960E945711F7FC19C02B853C85A701DB
:100F90004F5F5F4FBE01695F7F4FCE0101960E9498
:100FA000AF11BE016F5F7F4FC8010E940511CE01D6
:100FB00001960E945711C8010E94EE0FCE010796BC
:100FC0000E94571112C0BE01695F7F4FC6010E9487
:100FD000FF10CE0107960E9457113701F7FE63CF2D
:100FE00060EF74E0C8010E949B11C80162960FB6C1
:100FF000F894DEBF0FBECDBFDF91CF911F910F914F
:10100000FF90EF90DF90CF90BF90AF909F908F9028
:101010007F906F9008950F931F93CF93DF93CDB779
:10102000DEB729970FB6F894DEBF0FBECDBF8C0197
:10103000CE01019629874F8358870E949311BE01E4
:101040006F5F7F4FC8010E94471DCE0101960E942D
:10105000571188E492E0F801918380834F814087A3
:101060005885518761E0842F0E94C0212985622F15
:10107000C80180DC29960FB6F894DEBF0FBECDBF45
:10108000DF91CF911F910F9108956F927F928F9270
:101090009F92AF92BF92CF92DF92EF92FF921F93F7
:1010A000CF93DF93CDB7DEB7AE970FB6F894DEBF20
:1010B0000FBECDBF6C015B016FE776E008960E9422
:1010C0006A10811107C0E12CF12C46018EE0880ED8
:1010D000911CA2C0B601625F7F4FCE0101960E94B3
:1010E00093118D819E81892B49F069EB74E0898190
:1010F0009A810E943C2911E0892B09F010E0CE0171
:1011000001960E9457111123F1F2CE01019669DE7A
:1011100060EF74E0CE0189960E949B1165EB73E04D
:10112000CE0189960E94F1106BEB74E0CE01899696
:101130000E94F110E12CF12C80913F069091400625
:10114000E816F90688F5E0913D06F0913E06C701E4
:10115000880F991FE80FF91F60817181DB01ED9104
:10116000FC910284F385E02DCE0183961995BE0192
:101170006D5D7F4FCE0189960E94FF10CE01839650
:101180000E94571180913F06909140060197E81602
:10119000F90631F06DEC74E0CE0189960E94F110F1
:1011A000BFEFEB1AFB0AC8CF6FEC74E0CE01899653
:1011B0000E94F11063EE73E0CE0189960E94F11057
:1011C000BE01675D7F4FCE0183960E949311BE01E1
:1011D0006D5D7F4FCE010196CDDDCE0183960E94DD
:1011E0005711BE016F5F7F4FCE0183960EDDBE01AA
:1011F0006D5D7F4FC5010E940112CE0183960E9452
:101200005711CE0189960E945711CE01019656D8EA
:101210009AC0BFEFEB1AFB0A80913F0690914006FF
:10122000E816F90608F04BC0E0913D06F0913E0645
:10123000C701880F991FE80FF91F60807180B40102
:10124000CE0183960E949311D301ED91FC9100840D
:10125000F185E02DB301CE01019619952FA138A596
:101260004D815E812417350790F08BA19CA10097DA
:1012700071F069817A816115710549F0241B350B84
:10128000820F931F0E943C2911E0892B09F010E086
:10129000CE0101960E945711CE0183960E945711EC
:1012A000112309F4B6CFD301ED91FC910480F581AF
:1012B000E02DA501B601C301199511E044C0CE018E
:1012C000019664DD62ED74E0CE0183960E949B116D
:1012D000BE016D5D7F4FCE01019655DDCE01839637
:1012E000E6D760E774E0CE0183960E949B11BE01B1
:1012F0006D5D7F4FCE01019643DDCE018396D7D73A
:101300006BE774E0CE0183960E949B11BE016D5D78
:101310007F4FCE01019631DDCE018396C8D7BE0145
:101320006F5F7F4FCE01839670DCBE016D5D7F4F96
:10133000C5010E940112CE018396B9D7CE01019654
:101340000E945E0110E0812FAE960FB6F894DEBFCA
:101350000FBECDBFDF91CF911F91FF90EF90DF9037
:10136000CF90BF90AF909F908F907F906F90089597
:10137000FC01918D228D892F90E0805C9F4F821B14
:1013800091098F739927089580E090E0892B19F0D7
:101390003AD5811125C080E090E0892B41F080E0B2
:1013A00090E0892B21F00E94000081111CC080E098
:1013B00090E0892B41F080E090E0892B21F00E94A1
:1013C0000000811113C080E090E0892BA1F080E043
:1013D00090E0892B81F00E94000081110AC00895DD
:1013E0000E940000D8CF0E940000E1CF0E940000C0
:1013F000EACF0C94000008950895CF93DF931F92D5
:10140000CDB7DEB76983DC01ED91FC910280F381F9
:10141000E02D41E050E0BE016F5F7F4F19950F90C6
:10142000DF91CF910895FC01818D928D0895FC018B
:1014300084899589089522EC32E0FC013183208370
:10144000FB014089518962897389FC01428353837E
:10145000648375830895DC01ED91FC91048CF58D16
:10146000E02D199480E00895CF93DF931F92CDB7BC
:10147000DEB76983DC01ED91FC910280F381E02D00
:1014800041E050E0BE016F5F7F4F19950F90DF91F3
:10149000CF910895FC019485FB018485981303C0C6
:1014A00081E0943009F480E0089521E0FC01848516
:1014B000843009F420E0822F0895BF92CF92DF920A
:1014C000EF92FF920F931F93CF93DF9300D000D042
:1014D000CDB7DEB7FC01208D243009F049C06A0188
:1014E0007B018C01B12C63E070E08B2D51DA81110E
:1014F00003C0F801B08E06C08831D9F3B394F4E08C
:10150000BF12F1CFF801808D843091F196E0EAECC2
:10151000F2E0DE01119601900D929A95E1F7F70144
:1015200093819F779C8394819D8395819E83B7014E
:101530006E5F7F4F62DAB601F801808D4FDAF801F5
:10154000808D90E0982F882746E050E0BE016F5FC5
:101550007F4F8A5F9B4F0E94ED15F801128E118E0E
:1015600020E8A60162E0808D0E94001781E001C0A2
:1015700080E026960FB6F894DEBF0FBECDBFDF9198
:10158000CF911F910F91FF90EF90DF90CF90BF9080
:101590000895CF93DF931F92CDB7DEB7FC01218D65
:1015A000328D232B49F0BE016F5F7F4F808D0E94EB
:1015B0003316898190E002C08FEF9FEF0F90DF918B
:1015C000CF910895CF93DF93FC01218D328D2115AA
:1015D000310519F48FEF9FEF11C0EC01421753074B
:1015E00008F0A901888D0E947E161816190694F736
:1015F000298D3A8D281B390B3A8F298FDF91CF9196
:1016000008950F931F93CF93DF931F92CDB7DEB74B
:10161000FC01218D328D232B61F08C0141E050E0E3
:10162000BE016F5F7F4F808D0E947E1618161906CF
:101630001CF08FEF9FEF08C0F801818D928D01970C
:10164000928F818F898190E00F90DF91CF911F91D0
:101650000F9108950F931F93CF93DF93CDB7DEB70C
:1016600028970FB6F894DEBF0FBECDBF8C01F801EE
:10167000818D928D892B49F0D801ED91FC910284E6
:10168000F385E02DC8011995F2CF808D0E945E167A
:10169000181619065CF548E050E0BE016F5F7F4FF9
:1016A000D80158968C910E947E169C011816190636
:1016B000DCF489819A81AB81BC81F801808B918BAC
:1016C000A28BB38B8D8190E0982F88272E81820F7B
:1016D000911D958B848B2F8130E0322F22278885B6
:1016E000280F311D328F218FC90102C080E090E0A8
:1016F00028960FB6F894DEBF0FBECDBFDF91CF9115
:101700001F910F910895AF92BF92CF92DF92FF92F7
:101710000F931F93CF93DF938C015B01EA01FC01D0
:10172000C688D788F08C80E590E071D98F2D0E9413
:101730004D218C179D0720F48F2D0E944D21EC0127
:101740009E01A501B6018F2D0E94E8205FD9F80106
:10175000868997898C0F9D1F978B868BCE01DF9191
:10176000CF911F910F91FF90DF90CF90BF90AF90DE
:101770000895FF920F931F93CF93DF93FB01DC013A
:1017800057961C921E9256975896FC908281811112
:1017900009C08381811106C08481811103C08581C4
:1017A0008823A1F04115510589F08A01EF0180E5F8
:1017B00090E02DD9BE016E5F7F4F8F2D1ED9B801ED
:1017C0008F2D0CD923D981E090E002C080E090E019
:1017D000DF91CF911F910F91FF900895CF93FC015E
:1017E000C08D80E590E013D960E270E08C2F0E94FC
:1017F0007F2062E070E08C2FCBD884FD14C062E0C3
:1018000070E08C2FC5D883FF09C048E162E070E02A
:101810008C2FB4D8FBD880E090E00DC0F7D880E5DD
:1018200090E0F5D8E6CF40E162E070E08C2FA6D8DA
:10183000EDD881E090E0CF910895CF92DF92EF92C2
:10184000FF920F931F93CF93DF93CDB7DEB7AF9780
:101850000FB6F894DEBF0FBECDBF7C016A0102EC6B
:1018600012E01A8309831C861B8688EE93E0A0E0B1
:10187000B0E08D879E87AF87B88B80E493E09A872E
:101880008987188F0F8B198E1A8E1B8E1C8E84E001
:1018900089A31DA30CA31EA21FA218A619A680919E
:1018A0002F0690913006A0913106B09132068CA798
:1018B0009DA7AEA7BFA78B839C83AD83BE831886ED
:1018C0001F82AE014C5D5F4FCE010196C4D68130C0
:1018D0009105B1F4D701ED91FC910488F589E02DD3
:1018E0001BA70AA78EA19FA1A8A5B9A58CA79DA7F4
:1018F000AEA7BFA7A601BE01665D7F4FC7011995C0
:10190000AF960FB6F894DEBF0FBECDBFDF91CF917B
:101910001F910F91FF90EF90DF90CF900895CF939C
:10192000DF93EC01888D843061F00E94EC16E88D25
:10193000F0E0EE0FFF1FE15FF84F1182108284E0AC
:10194000888FDF91CF910895EF92FF921F93CF93ED
:10195000DF93FC01208D243011F080E01BC07B015F
:10196000EC0110E0812F56D8811102C0188F05C0FC
:101970008831E1F31F5F1430A9F7888D843069F353
:10198000FD86EC861A8E198E20E0A70162E00E9487
:10199000001781E0DF91CF911F91FF90EF900895A4
:1019A000FC01848DDF01A80FB11DA35ABF4F2C91FC
:1019B000848D90E001968F739927848FA689B789CB
:1019C0002C93A089B1898C9180648C93938D848DA4
:1019D000981306C00288F389E02D80818F7D808373
:1019E0000895FC018485843009F014C880E00895CE
:1019F0004F925F926F927F928F929F92AF92BF921F
:101A0000CF92DF92EF92FF921F93CF93DF93CDB7E8
:101A1000DEB72D970FB6F894DEBF0FBECDBF7C01A9
:101A20009FE0A92E97E0B92E10E0C12CD12C28EE12
:101A3000422E23E0522E612C712C32EF832E32E0A5
:101A4000932E1C821B824D825E826F8278869A82E0
:101A500089821D87D5012D913D915D01F70184811A
:101A6000958128173907A1F4CE010196BADF843198
:101A700061F0CE010196B5DF8C3151F4CE010196B3
:101A80000E94A91E892B91F003C0CC24C394D12CB1
:101A90001F5F1430B1F6CD2871F4D701ED91FC91A0
:101AA0000084F185E02DC701199505C0CE0101968E
:101AB0000E94231EEDCF2D960FB6F894DEBF0FBE09
:101AC000CDBFDF91CF911F91FF90EF90DF90CF902E
:101AD000BF90AF909F908F907F906F905F904F904E
:101AE00008952F923F924F925F926F927F928F92C2
:101AF0009F92AF92BF92CF92DF92EF92FF920F939D
:101B00001F93CF93DF93CDB7DEB72E970FB6F89420
:101B1000DEBF0FBECDBF7C016B015A0169DF0FE054
:101B200017E020E0612C712C88EE282E83E0382EFF
:101B3000412C512C92EF892E92E0992E1C821B820F
:101B40002D823E824F8258869A8289822D87F801A3
:101B5000419151918F01F70184819581481759076F
:101B600039F4CE0101962E873CDF2E858731E9F0CE
:101B70002F5F243019F7C3012E960FB6F894DEBFFD
:101B80000FBECDBFDF91CF911F910F91FF90EF90CE
:101B9000DF90CF90BF90AF909F908F907F906F908D
:101BA0005F904F903F902F900895A501B601CE0110
:101BB00001962E870E94B21E680E791E2E85D8CF00
:101BC0008F929F92AF92BF92CF92DF92EF92FF924D
:101BD0000F931F93CF93DF93CDB7DEB72D970FB63B
:101BE000F894DEBF0FBECDBF7C0100E010E038EE00
:101BF000832E33E0932EA12CB12C42EFC42E42E071
:101C0000D42E1C821B828D829E82AF82B886DA829D
:101C1000C9820D87CE010196E4DE811125C0F7014E
:101C20004481558120E061E0802F0E94001780E50B
:101C300090E00E94070563E070E0802F0E94C804D6
:101C4000833129F462E070E0802F0E947F200E949F
:101C50000605F70184819581000F111FF801E15FEE
:101C6000F84F9183808305C00F5F1F4F043011052B
:101C700041F62D960FB6F894DEBF0FBECDBFDF91B3
:101C8000CF911F910F91FF90EF90DF90CF90BF9079
:101C9000AF909F908F9008950895CF92DF92EF922A
:101CA000FF920F931F93CF93DF936C017A018B0107
:101CB000C0E0D0E0CE15DF0589F0D8016D918D012F
:101CC000D601ED91FC910190F081E02DC6011995AE
:101CD000892B11F47E0102C02196ECCFC701DF9160
:101CE000CF911F910F91FF90EF90DF90CF900895CB
:101CF000FC01538D448D252F30E0842F90E0821B12
:101D0000930B541710F0CF96089501970895FC0196
:101D1000918D828D981761F0828DDF01A80FB11D22
:101D20005D968C91928D9F5F9F73928F90E0089546
:101D30008FEF9FEF0895FC01918D828D981731F000
:101D4000828DE80FF11D858D90E008958FEF9FEF54
:101D500008950E942F29CF93DF93EC018881998108
:101D6000009711F00E94B327198218821D821C82ED
:101D70001B821A82DF91CF9108950F931F93CF9307
:101D8000DF93EC0188819981009729F02A813B81BA
:101D90002617370788F48B016F5F7F4F0E944B280F
:101DA000009761F0998388831B830A832C813D818E
:101DB000232B11F4FC01108281E001C080E0DF914F
:101DC000CF911F910F910895EF92FF920F931F9360
:101DD000CF93DF93EC017B018A01BA01CEDF811141
:101DE00003C0CE01B8DF07C01D830C83B701888113
:101DF00099810E944529CE01DF91CF911F910F91CA
:101E0000FF90EF90089580E995E0B2DA21E0892B08
:101E100009F420E0822F0895EF92FF920F931F9311
:101E2000CF93DF93EC0181E0888F9B8D8C8D98138D
:101E300005C0E889F989808185FD23C0F62E0B8DC8
:101E400010E00F5F1F4F0F731127E02E8C8DE812EB
:101E50000BC00FB607FCFACFE889F989808185FFAE
:101E6000F5CFCE019DDDF2CF8B8DFE01E80FF11D88
:101E7000E35AFF4FF0820B8FEA89FB8980818062F1
:101E800007C0EE89FF896083E889F98980818064D1
:101E9000808381E090E0DF91CF911F910F91FF90BF
:101EA000EF900895CF93DF93EC01888D8823C1F0E4
:101EB000EA89FB89808185FD05C0A889B9898C9153
:101EC00086FD0EC00FB607FCF5CF808185FFF2CFEF
:101ED000A889B9898C9185FFEDCFCE0161DDE8CF6E
:101EE000DF91CF9108953FB7F89480911C079091AE
:101EF0001D07A0911E07B0911F0726B5A89B05C01E
:101F00002F3F19F00196A11DB11D3FBFBA2FA92F78
:101F1000982F8827820F911DA11DB11DBC01CD01F5
:101F200042E0660F771F881F991F4A95D1F70895E1
:101F30002FB7F894609118077091190780911A07CC
:101F400090911B072FBF08951F920F920FB60F920B
:101F500011242F933F938F939F93AF93BF938091BF
:101F6000180790911907A0911A07B0911B0730919B
:101F7000170723E0230F2D3720F40196A11DB11D73
:101F800005C026E8230F0296A11DB11D2093170757
:101F90008093180790931907A0931A07B0931B0713
:101FA00080911C0790911D07A0911E07B0911F07FB
:101FB0000196A11DB11D80931C0790931D07A0934E
:101FC0001E07B0931F07BF91AF919F918F913F91D3
:101FD0002F910F900FBE0F901F901895AF92BF9248
:101FE000CF92DF92EF92FF920F931F93CF93DF93E5
:101FF000DC01CD90DC901197C114D10409F442C0EA
:102000001496CD91DC9115972097E1F18C01560142
:102010007501BFEFAB1ABB0AF7018081082E000CD7
:10202000990B0E949526892B99F72197CC0DDD1DE0
:102030008881082E000C990B0E949526892B91F41B
:10204000AE014F5F5F4F4E195F09D80115965C9343
:102050004E931497CE14DF0450F4B701C6010E94CA
:10206000332905C0CE15DF0558F32197E1CFD801FC
:10207000ED91FC91119714968D919C911597E80F15
:10208000F91F1082DF91CF911F910F91FF90EF9078
:10209000DF90CF90BF90AF900895CF93DF93FC0176
:1020A000248135814217530780F4FB01DC01CD9177
:1020B000DC9160817181CE01840F951F0E944C29B3
:1020C000009719F08C1B9D0B02C08FEF9FEFDF91E3
:1020D000CF910895FC0124813581FB014481558114
:1020E0002417350721F5FC0180819181FB01608176
:1020F0007181009719F061157105A1F461157105E1
:1021000049F0232BB1F0FB01808190E091958195FE
:1021100091090AC0009769F0232B59F0FC018081D6
:1021200090E002C00E943C2921E0892B19F020E0B8
:1021300001C021E0822F0895EF92FF920F931F9329
:10214000CF93DF93FC01248135816115710511F472
:1021500080E018C041155105A1F07B01EC018A0116
:10216000020F131FB80109DE882391F328813981FA
:102170008C819D81B701820F931F0E9445291D8389
:102180000C8381E0DF91CF911F910F91FF90EF9031
:102190000895CF93DF93EC016115710559F0FB01B0
:1021A00001900020E9F73197AF01461B570BC4DFC0
:1021B000811102C0CE01CFDDCE01DF91CF91089514
:1021C000CF93DF93EC01FB014481558160817181E4
:1021D000B3DF811102C0CE01BEDDCE01DF91CF9110
:1021E00008956115710549F0FB0101900020E9F7A0
:1021F0003197AF01461B570B9FCF80E00895FB013D
:10220000448155816081718197CF0F931F93CF9344
:10221000DF938C01EB018617970771F1FC01808138
:1022200091810097B1F0688179816115710579F02C
:10223000428153812C813D814217530740F00E9417
:1022400045298C819D81F8019583848313C00E9468
:10225000B32788819981F801918380838A819B814A
:10226000938382838C819D819583848319821882D4
:102270001B821A821D821C82C801DF91CF911F919F
:102280000F910895CF93DF93EC01FB018617970719
:1022900051F0608171816115710521F04481558192
:1022A00093DD01C058DDCE01DF91CF910895FC018F
:1022B000808191810C94B327EF92FF920F931F932B
:1022C000CF93DF93CDB7DEB762970FB6F894DEBF3A
:1022D0000FBECDBF8C01CB01F80111821082138299
:1022E00012821582148250E09E012F5F3F4F7901C8
:1022F000B9010E945326F70101900020E9F73197B8
:10230000AF014E195F09B701C8015EDD62960FB6D5
:10231000F894DEBF0FBECDBFDF91CF911F910F911B
:10232000FF90EF900895FC011182108213821282B7
:1023300015821482A7CFFC011182108213821282AF
:10234000158214826115710549F0FB01019000208E
:10235000E9F73197AF01461B570B36CD0895BF9271
:10236000CF92DF92EF92FF920F931F93CF93DF9361
:102370007C016B01EA0189012417350720F48D2FB8
:10238000E901042F182F60EF74E0C701D4DFD601F4
:1023900014968D919C911597C817D90738F5801719
:1023A000910708F48C01D601ED91FC911197E00F93
:1023B000F11FB08010824D915C91BA016C0F7D1FAE
:1023C0006115710559F0FB0101900020E9F7319783
:1023D000AF01461B570BC701F7DC02C0C701BBDCCE
:1023E000D601ED91FC91E00FF11FB082C701DF91A2
:1023F000CF911F910F91FF90EF90DF90CF90BF9002
:102400000895DC01ED91FC91DB0114964D915C91F6
:1024100015976D917C910280F381E02D19946115DF
:10242000710579F0FB0101900020E9F73197AF01C8
:10243000461B570BDC01ED91FC910280F381E02DEE
:10244000199480E090E008954F925F926F927F928E
:10245000EF92FF920F931F93CF93DF93CDB7DEB729
:10246000A1970FB6F894DEBF0FBECDBF7C01FA0175
:10247000CB0119A2223008F42AE08E010F5D1F4F14
:10248000422E512C612C712CBF01A30192010E949C
:10249000D626F901CA01015011096A3014F4605DB1
:1024A00001C0695CD8016C93232B242B252B61F789
:1024B000B801C701B4DFA1960FB6F894DEBF0FBE16
:1024C000CDBFDF91CF911F910F91FF90EF907F9043
:1024D0006F905F904F9008958F929F92AF92BF92AE
:1024E000CF92DF92EF92FF920F931F93CF93DF93E0
:1024F0007C01EB016C0182E0C80ED11C4701E5E0D4
:102500008E0E911C00E010E0F60141916F0150E049
:1025100060E070E02AE0CE0197DF5C01E881F9819C
:102520000190F081E02D6EE2CE0119958A0D9B1D80
:10253000080F191FC814D90439F7F701458150E075
:1025400060E070E02AE0CE017FDF800F911FDF9115
:10255000CF911F910F91FF90EF90DF90CF90BF90A0
:10256000AF909F908F9008951F920F920FB60F9289
:1025700011240BB60F922F933F934F935F936F935A
:102580007F938F939F93AF93BF93EF93FF9380E9D4
:1025900095E006DAFF91EF91BF91AF919F918F91F6
:1025A0007F916F915F914F913F912F910F900BBE53
:1025B0000F900FBE0F901F9018951F920F920FB69D
:1025C0000F9211240BB60F922F938F939F93EF933B
:1025D000FF93E091A005F091A1058081E091A6050F
:1025E000F091A70582FD12C090818091A9058F5FAF
:1025F0008F732091AA05821751F0E091A905F0E0B0
:10260000E057FA4F958F8093A90501C08081FF9113
:10261000EF919F918F912F910F900BBE0F900FBE56
:102620000F901F9018951F93CF93DF93182F66E29A
:1026300070E00E94C804C82FD0E067E270E0812FEC
:102640000E94C804DC2FCC279E01282BC901DF91F2
:10265000CF911F9108952F923F924F925F926F9268
:102660007F928F929F92AF92BF92CF92DF92EF9222
:10267000FF920F931F93CF93DF93CDB7DEB765978C
:102680000FB6F894DEBF0FBECDBF7C016B013A01DF
:10269000FB0120E080E090E06AE03191332309F112
:1026A00040ED430F4A3080F4689FA001699F500DB0
:1026B0001124CA01C097830F911D37FD9A958F3F52
:1026C000910559F350F313C03E3289F4233079F069
:1026D000D301A20FB11D12968C932F5F80E090E082
:1026E000DCCF233021F4F301858381E01FC0F701A3
:1026F00042815381648175818091370690913806BB
:10270000A0913906B0913A06481759076A077B0726
:1027100009F498C10DDC8701085F1F4F6F707727A0
:102720007C5FC80111D9813019F080E090E0EFC1E1
:1027300082EC92E09A838983F70182819381A4815C
:10274000B5818B839C83AD83BE8345E350E0BE019E
:102750006F5F7F4FC8010DD8892B19F4C12CD12C84
:102760006CC1E6DBF70177836683762767277627D8
:102770007A83698342E050E0BE016F5F7F4FC801FA
:102780000E94830B81E090E09E878D8742E050E0BD
:10279000BE01635F7F4FC8010E94830B80E091E020
:1027A0009E878D8742E050E0BE01635F7F4FC80186
:1027B0000E94830B1E861D8642E050E0BE01635FCF
:1027C0007F4FC8010E94830B42E050E0BE01635F6F
:1027D0007F4FC8010E94830B42E050E0BE01635F5F
:1027E0007F4FC8010E94830B5601F5018081882329
:1027F00011F1F6015F018191811115C045018C181D
:102800009D081814190494F48F8641E050E0BE012D
:10281000615F7F4FC8010E94830BA401B601C8010C
:102820000E94830B03C08E3229F7E8CF6501FFEFCA
:10283000CF1ADF0ADACF1F8641E050E0BE01615FA8
:102840007F4FC8010E94830BC12CDD24D394DE8608
:10285000CD8642E050E0BE01635F7F4FC8010E9419
:10286000830BDE86CD8642E050E0BE01635F7F4F82
:10287000C8010E94830BC8010E94EE0B892B09F44A
:102880006DCF63E0A62EB12CF2E06F0E711C50DB11
:102890001B012C01C8010E942A0B181619069CF076
:1028A00047DBDC01CB0182199309A409B5098938FA
:1028B0009341A105B105D0F462E370E080E090E0BF
:1028C0000E94FC21E7CFF701428153816481758129
:1028D000808D918DA28DB38D481759076A077B07AC
:1028E00041F4848D958DC59721F406C02FEF3FEFFD
:1028F0009AC02EEF3FEF97C0F70181A192A10C97EC
:102900000CF4A6C04CE050E0BE016F5F7F4FC801E1
:102910000E94E20A8B8190E0982F88272C81822BDD
:102920009A8B898B298130E0322F22274A81242BF0
:10293000F701468157814217530709F086C097FF78
:1029400084C08F709270892B09F0DEC0CF80D12CAB
:10295000DC2CCC248885C82AC114D10409F4D1C048
:10296000812C912C8D8190E0982F88272E81822BAD
:102970008816990608F46FC0812C912C41E050E034
:10298000BE016D5E7F4FC8010E94E20A8B89982FBD
:10299000907C09F093C0811186C08B898111EECFA4
:1029A00042E050E0BE01615F7F4FC8010E94E20A31
:1029B00042E050E0BE01635F7F4FC8010E94E20A1F
:1029C000C8010E94010BC8010E94010BC8010E94AE
:1029D000010BC8010E94010B42E050E0BE016F5E96
:1029E0007F4FC8010E94E20A8F8598898115914026
:1029F00009F069C02D853E853227232732272130F3
:102A0000310509F060C089899A898115944009F0DF
:102A100075C044E050E0B301C8012C8B3D8B0E948F
:102A2000E20A2C893D896901F1E0AF1AB10829F069
:102A30002FEFC216D20609F42ACFC8010E948F0CCC
:102A4000C60165C08EEF9FEF62C02CEF3FEFEBCF6A
:102A50002DEF3FEFE8CF41E050E0BE01635F7F4FD5
:102A6000C8010E94E20A8D85811113C08D858111F4
:102A7000F2CFC8010E94010BC8010E94010BC801DE
:102A80000E94010BC8010E94010BFFEF8F1A9F0AE1
:102A900069CF8D859FEF980F9D87882339F3C801F3
:102AA0000E94010BF6CF8B899FEF980F9B8B882399
:102AB00009F473CFC8010E94010BF5CFC8010E9431
:102AC000010B1B8A6ACF412C512C89899A8998273E
:102AD000892798274816590638F4C8010E94010B27
:102AE0008FEF481A580AF1CFEFEF8E1A9E0A8C1416
:102AF0009D0409F043CF26EF3FEF95CF27EF3FEF3F
:102B000092CF2AEF3FEF8FCF2BEF3FEF8CCF659621
:102B10000FB6F894DEBF0FBECDBFDF91CF911F91EE
:102B20000F91FF90EF90DF90CF90BF90AF909F906C
:102B30008F907F906F905F904F903F902F9008956F
:102B40002C9A08952C9808951F93CF93DF93182FF4
:102B500060E270E00E94C804C82FD0E061E270E03B
:102B6000812F0E94C804DC2FCC279E01282BC9018D
:102B7000DF91CF911F9108958EBD00000DB407FE27
:102B8000FDCF8EB50895CF92DF92EF92FF920F9313
:102B90001F93CF93DF93EC017A018B016C01C40E7C
:102BA000D51ECC15DD0579F0CDDF8FE0E5DF8D2F6B
:102BB000E3DF8C2FE1DF219680E0DEDFF8018193F7
:102BC0008F01BEDFEECFC701DF91CF911F910F9133
:102BD000FF90EF90DF90CF900895CF92DF92EF9229
:102BE000FF920F931F93CF93DF93EC017A018B0138
:102BF0006C01C40ED51ECC15DD0571F0A3DF80EF8E
:102C0000BBDF8D2FB9DF8C2FB7DF2196F8018191C3
:102C10008F01B2DF95DFEFCFC701DF91CF911F9119
:102C20000F91FF90EF90DF90CF9008951F93CF9377
:102C3000DF931F921F92CDB7DEB7182F6A83998357
:102C400081DF80EF99DF9981892F96DF812F94DFD3
:102C50006A81862F91DF74DF81E00F900F90DF9102
:102C6000CF911F910895EF92FF921F93CF93DF931F
:102C7000182F7B0180E590E00E94070568E270E074
:102C8000812F0E94C804C82FD0E069E270E0812F34
:102C90000E94C804DC2FCC27BE01682B21E030E065
:102CA000A701812F0E94A2200E94060581E090E0EA
:102CB000DF91CF911F91FF90EF900895FF920F93B6
:102CC0001F93CF93DF93F82E80E590E00E940705D5
:102CD000C0E0D0E08F2DA7DC8C01892B19F08F2D5F
:102CE000A2DCEC01C017D107A9F70E940605CE01AE
:102CF000DF91CF911F910F91FF900895AF92BF92F6
:102D0000DF92EF92FF920F931F93CF93DF93D82E12
:102D10007B018A0180E590E00E940705C0E0D0E0D9
:102D20008D2D81DC5C01892B19F08D2D7CDCEC0173
:102D3000CA15DB05A9F7209799F463E070E08D2DA3
:102D40000E94C8048431D9F18823C9F1C1E0D0E0E0
:102D50008C3111F4C0E0D0E0D195C195D1092FC0DC
:102D60000C171D070CF4E8011C161D0644F568E25B
:102D700070E08D2D0E94C804082F10E069E270E019
:102D80008D2D0E94C804102F0027082B9E01A7013B
:102D9000B8018D2D0E94A2200C0F1D1F412F68E24B
:102DA00070E08D2D0E94BE04402F69E270E08D2DF1
:102DB0000E94BE0460E470E08D2D0E947F200E947E
:102DC0000605CE01DF91CF911F910F91FF90EF90FB
:102DD000DF90BF90AF900895CF93C82F80E590E02B
:102DE0000E94070560E170E08C2F0E947F204FEF6A
:102DF00062E070E08C2F0E94BE04CF910C94060517
:102E0000FF920F931F93CF93DF931F921F92CDB723
:102E1000DEB7F82E8A012A836983DEDF80E590E041
:102E20000E9407052A816981462F422B60E070E0ED
:102E30008F2D0E94BE040115110551F40091200749
:102E4000109121070F5F1F4F109321070093200758
:102E5000412F64E070E08F2D0E94BE04402F65E09A
:102E600070E08F2D0E94BE0461E070E08F2D0E9403
:102E70007F200E94060581E00F900F90DF91CF9197
:102E80001F910F91FF90089581E090E00895FC015B
:102E900082859385089582E090E00895CF93DF9333
:102EA000EC01DB01ED91FC910488F589E02DCB016B
:102EB0001995811103C061E676E002C067E676E00D
:102EC000CE0131DACE01DF91CF910895CF93DF9318
:102ED000EC016E5F7F4F27DACE01DF91CF9108952D
:102EE000FC0180850E94692121E0892B09F420E002
:102EF000822F089520E332E0FC0121933193CF012A
:102F0000D6C920E332E0FC0121933193CF01CFC930
:102F1000EF92FF920F931F93CF93DF93CDB7DEB75E
:102F200068970FB6F894DEBF0FBECDBF7C018B0152
:102F3000DB01ED91FC910088F189E02DCE014396F3
:102F40001995F801608571854AE0CE010D96B4D9D6
:102F5000D801ED91FC910084F185E02DB801CE01FE
:102F60000796199561EF74E0CE010196E4D9BE0190
:102F7000695F7F4FCE01019623D96BEA73E009D9CF
:102F8000BE01635F7F4F1CD96FEA73E002D9BE01B7
:102F90006D5E7F4F15D9BC01C701C5D9CE01019621
:102FA00086D9CE01079683D9CE010D9680D9CE0160
:102FB00043967DD9C70168960FB6F894DEBF0FBE61
:102FC000CDBFDF91CF911F910F91FF90EF900895AA
:102FD000CF93DF93EC01FB01628573854AE06CD9E6
:102FE000CE01DF91CF910895EF92FF920F931F933F
:102FF000CF93DF93CDB7DEB768970FB6F894DEBFF7
:103000000FBECDBF7C018B01DB01ED91FC910088EF
:10301000F189E02DCE0143961995F80160857185FF
:103020004AE0CE010D9648D9D801ED91FC9100847B
:10303000F185E02DB801CE010796199561E075E0A4
:10304000CE01019678D9BE01695F7F4FCE0101960E
:10305000B7D86BEA73E09DD8BE01635F7F4FB0D8ED
:103060006FEA73E096D8BE016D5E7F4FA9D8BC01B0
:10307000C70159D9CE0101961AD9CE01079617D9A1
:10308000CE010D9614D9CE01439611D9C701689689
:103090000FB6F894DEBF0FBECDBFDF91CF911F9169
:1030A0000F91FF90EF900895EF92FF920F931F936F
:1030B000CF93DF93CDB7DEB72C970FB6F894DEBF72
:1030C0000FBECDBF8C017B0160EF74E034D965EB9E
:1030D00073E0C80186D8D701ED91FC910084F18599
:1030E000E02DB701CE010796199568EB73E0CE018C
:1030F000019621D9BE01695F7F4FCE01019660D84C
:103100006EE175E046D8BC01C80179D8CE010196C0
:10311000CED8CE010796CBD860EC73E0C80161D859
:1031200061E175E0C8015DD8F701608571854AE00D
:10313000CE010796C1D868ED73E0CE010196FBD8A9
:10314000BE01695F7F4FCE0101963AD86EE175E00E
:1031500020D8BC01C80153D8CE010196A8D8CE0111
:103160000796A5D8D701ED91FC910088F189E02D53
:10317000B701CE01079619956EED73E0CE01019669
:10318000DAD8BE01695F7F4FCE01019619D86FEE84
:1031900074E00E94C910BC01C80131D8CE0101966B
:1031A00086D8CE01079683D863EE73E0C80119D89C
:1031B000C8012C960FB6F894DEBF0FBECDBFDF91CD
:1031C000CF911F910F91FF90EF900895EF92FF9292
:1031D0000F931F93CF93DF93CDB7DEB72C970FB626
:1031E000F894DEBF0FBECDBF8C017B0160EF74E0B1
:1031F000A2D865EB73E0C8010E94F110D701ED91F0
:10320000FC910084F185E02DB701CE010796199558
:1032100068EB73E0CE0101968ED8BE01695F7F4FE7
:10322000CE0101960E94E0106EE175E00E94C91087
:10323000BC01C8010E94FF10CE01019638D8CE0112
:10324000079635D860EC73E0C8010E94F11061E286
:1032500075E0C8010E94F110F701608571854AE0B0
:10326000CE01079629D868ED73E0CE01019663D8A8
:10327000BE01695F7F4FCE0101960E94E0106EE1B2
:1032800075E00E94C910BC01C8010E94FF10CE0168
:1032900001960DD8CE0107960AD8D701ED91FC9181
:1032A0000088F189E02DB701CE010796199561E3F9
:1032B00075E0CE0101963FD8BE01695F7F4FCE0118
:1032C00001960E94E0106FEE74E00E94C910BC01EC
:1032D000C8010E94FF10CE0101960E945711CE0135
:1032E00007960E945711F701648575854AE0CE0163
:1032F00007960E945C1169E375E0CE0101961BD828
:10330000BE01695F7F4FCE0101960E94E0106FEE13
:1033100074E00E94C910BC01C8010E94FF10CE01D8
:1033200001960E945711CE0107960E945711D701AE
:103330001E966D917C911F974AE0CE0107960E94E0
:103340005C116FE375E0CE0101960E949B11BE01F6
:10335000695F7F4FCE0101960E94E0106FEE74E02E
:103360000E94C910BC01C8010E94FF10CE01019645
:103370000E945711CE0107960E94571163EE73E029
:10338000C8010E94F110C8012C960FB6F894DEBF58
:103390000FBECDBFDF91CF911F910F91FF90EF90A6
:1033A0000895CF93DF93EC01A5DDCE01DF91CF919E
:1033B0000C94B327CF93DF93EC01A3DDCE01DF9113
:1033C000CF910C94B3270F931F93CF93DF93EC010E
:1033D000E881F98104891589FB0180819181009739
:1033E00019F00E942D2603C060E070E0CB01CE01F1
:1033F000F801DF91CF911F910F9119948F929F92B5
:10340000AF92BF92CF92DF92EF92FF920F931F93F2
:10341000CF93DF93EC017B876A87C888D9880D2C0E
:10342000000CEE08FF088C849D84092C000CAA086F
:10343000BB08CB01770FAA0BBB0B9C01AD01281970
:1034400039094A095B096A897B89CB01770FAA0B85
:10345000BB0BBC01CD016C197D098E099F090E942F
:1034600007272E853F858901330F220B330BA901D6
:103470009801281939094A095B090E94B026C20E31
:10348000D31EE41EF51E86010884D985C02D61E097
:103490008C2F76D7C114D10409F4B1C00F3F1105A8
:1034A00009F4AFC0FE01FF27E05AFE4FE4914E2F12
:1034B00050E0FA013197E231F10508F09DC088270C
:1034C000EE58FF4F8F4F0C94162784B5806884BD4B
:1034D000C7BCA6C084B5806284BDC8BCA1C08091B1
:1034E0008000806880938000D0928900C09288001C
:1034F00097C080918000806280938000D0928B0082
:10350000C0928A008DC08091800088608093800086
:10351000D0928D00C0928C0083C08091B0008068F2
:103520008093B000C092B3007BC08091B0008062F5
:103530008093B000C092B40073C080919000806806
:1035400080939000D0929900C092980069C08091B9
:103550009000806280939000D0929B00C0929A006D
:103560005FC080919000886080939000D0929D0011
:10357000C0929C0055C08091A00080688093A000FC
:103580008091A0008F7B8093A000D092A900C09270
:10359000A80046C08091A00080628093A000D092D5
:1035A000AB00C092AA003CC08091A00088608093CC
:1035B000A000D092AD00C092AC0032C0809120013A
:1035C000806880932001D0922901C092280128C0F0
:1035D00080912001806280932001D0922B01C092C3
:1035E0002A011EC080912001886080932001D09222
:1035F0002D01C0922C0114C00038110514F460E0B4
:1036000001C061E08C2FDF91CF911F910F91FF904E
:10361000EF90DF90CF90BF90AF909F908F9081C63A
:10362000DF91CF911F910F91FF90EF90DF90CF909E
:10363000BF90AF909F908F9008950F931F93CF935B
:10364000DF9300D000D0CDB7DEB78B01DC01ED9168
:10365000FC910084F185E02DBC01CE010196199505
:10366000B801CE0101960E946A10182FCE01019672
:103670000E94571181E0111101C080E026960FB61B
:10368000F894DEBF0FBECDBFDF91CF911F910F9198
:103690000895AF92BF92CF92DF92EF92FF920F9375
:1036A0001F93CF93DF93CDB7DEB7A8970FB6F894EB
:1036B000DEBF0FBECDBF8C016B015A017B0188E0DC
:1036C000E80EF11C6FE776E0C7010E946A108111D5
:1036D00055C069E776E0C7010E946A1081114EC0AB
:1036E000CE0101960E94C60665E475E0CE01839680
:1036F0000E949B11BE016D5D7F4FCE0101960E941D
:10370000C306CE0183960E94571160E774E0CE0194
:1037100083960E949B11BE016D5D7F4FCE01019685
:103720000E94C006CE0183960E9457116BE774E099
:10373000CE0183960E949B11BE016D5D7F4FCE012D
:1037400001960E94BD06CE0183960E945711BE01CC
:103750006F5F7F4FCE0183960E940506BE016D5DAF
:103760007F4FC5010E940112CE0183960E9457111E
:10377000CE0101960E945E0180E057C069E776E0C5
:10378000C7010E946A10882309F1D801ED91FC91CC
:10379000E288F3886BE576E0CE0101960E949311F2
:1037A000AE014F5F5F4FB601CE0183960E94340792
:1037B000BE016D5D7F4FC801F7011995CE0183965B
:1037C0000E945711CE0101960E945711CE01019619
:1037D0000E94F106D801ED91FC910088F189E02D5D
:1037E000B801CE0183961995BE016D5D7F4FCE0164
:1037F00001960E940206CE0183960E945711BE01D7
:103800006F5F7F4FCE0183960E940506BE016D5DFE
:103810007F4FC5010E940112CE0183960E9457116D
:10382000CE0101960E945E0181E0A8960FB6F89441
:10383000DEBF0FBECDBFDF91CF911F910F91FF90E3
:10384000EF90DF90CF90BF90AF900895EF92FF92EE
:103850000F931F93CF93DF93CDB7DEB7A0970FB62B
:10386000F894DEBF0FBECDBF8C017B0184E692E0F1
:103870009A838983B8016E5F7F4FCE0103960E94C1
:103880009311B801685F7F4FCE0109960E94931192
:10389000B801625F7F4FCE010F960E949311B8016D
:1038A0006C5E7F4FCE0145960E949311B801665E13
:1038B0007F4FCE014B960E949311B701CE01019626
:1038C0000E944508CE0101960E947B01A0960FB68A
:1038D000F894DEBF0FBECDBFDF91CF911F910F9146
:1038E000FF90EF900895EF92FF920F931F93CF9365
:1038F000DF93CDB7DEB7E4970FB6F894DEBF0FBE07
:10390000CDBF7B01CE0101960E94C60669E674E038
:10391000CE0183960E949B11BE016D5D7F4FCE014B
:1039200001960E94C306CE0183960E9457116CE552
:1039300075E0CE0183960E949B11BE016D5D7F4FA5
:10394000CE0101960E94C006CE0183960E945711B7
:103950006BE774E0CE0183960E949B11BE016D5D02
:103960007F4FCE0101960E94BD06CE0183960E9434
:10397000571183E090E09C8F8B8F60EF74E0CE0155
:103980008F960E949B1166E675E0CE018F960E948D
:10399000F11067E775E0CE018F960E94F11000E00C
:1039A00010E080913F06909140060817190788F5AE
:1039B0009801220F331FE0913D06F0913E06E20F81
:1039C000F31F60817181DB01ED91FC910484F58529
:1039D000E02DCE0183961995BE016D5D7F4FCE011E
:1039E00089960E9493116FE775E0CE0189960E9437
:1039F000C910BC01CE018F960E94FF10CE0189969E
:103A00000E945711CE0183960E9457110F5F1F4FDE
:103A1000C8CF66E875E0CE018F960E94F110BE0116
:103A2000615D7F4FCE0183960E949311BE016D5D53
:103A30007F4FCE0101960E94BA06CE0183960E9466
:103A40005711BE016F5F7F4FCE0183960E9405061E
:103A5000BE016D5D7F4FC7010E940112CE018396AA
:103A60000E945711CE018F960E945711CE010196E8
:103A70000E945E01E4960FB6F894DEBF0FBECDBF84
:103A8000DF91CF911F910F91FF90EF90089520E368
:103A900032E0FC0121933193CF010C9493110F93E9
:103AA0001F93CF93DF93CDB7DEB728970FB6F89467
:103AB000DEBF0FBECDBF8C01CE0101964F8358876C
:103AC0000E949311BE016F5F7F4FC801E0DFCE01FE
:103AD00001960E94571184E893E0F8019183808356
:103AE0004F8140875885518760E0842F49D42896BC
:103AF0000FB6F894DEBF0FBECDBFDF91CF911F91FF
:103B00000F9108956F927F928F929F92AF92BF9282
:103B1000CF92DF92EF92FF920F931F93CF93DF9399
:103B2000CDB7DEB728970FB6F894DEBF0FBECDBF76
:103B30004C013901CE0101964F8358870E949311A1
:103B4000BE016F5F7F4FC401A2DFCE0101960E94CC
:103B5000571188E693E0F401918380834F81408779
:103B60005885518715870487F786E686D18AC08AEB
:103B7000B38AA28A61E0842F03D4B301C4013EDC7E
:103B800028960FB6F894DEBF0FBECDBFDF91CF9160
:103B90001F910F91FF90EF90DF90CF90BF90AF906B
:103BA0009F908F907F906F9008950895CF93DF93AB
:103BB0001F92CDB7DEB76983DC01ED91FC910280E5
:103BC000F381E02D41E050E0BE016F5F7F4F19951A
:103BD0000F90DF91CF910895DC01ED91FC91068C5F
:103BE000F78DE02D199591E089270895862F089586
:103BF00081E086270895089580E090E00895CF93AE
:103C0000DF93FC0124852430D1F0EC010E94F10CFB
:103C1000843181F0882371F0883161F08C3161F456
:103C2000E881F9810084F185E02DCE01199521E02C
:103C3000892B19F420E001C021E0822F01C080E02F
:103C4000DF91CF910895CF92DF92EF92FF921F9371
:103C5000CF93DF93FC011485143091F1EC0180E5E2
:103C600090E00E94070568E070E0812F48D20E9432
:103C700006050E94980F6B017C01CE010E94F10C99
:103C80008823A1F061E070E080E090E0B5D30E946D
:103C9000980FDC01CB018C199D09AE09BF09883E44
:103CA0009340A105B10548F38C8596D8EC85F0E0EA
:103CB000EE0FFF1FE15FF84F1182108284E08C87C6
:103CC000DF91CF911F91FF90EF90DF90CF900895FB
:103CD0000F931F93CF93DF931F92CDB7DEB78C0165
:103CE000DC01ED91FC910084F185E02D1995892B83
:103CF00051F0BE016F5F7F4FF80184850E9433163B
:103D0000898190E002C08FEF9FEF0F90DF91CF91FC
:103D10001F910F910895FC0184850C947E16CF931A
:103D2000DF931F92CDB7DEB741E050E0BE016F5F79
:103D30007F4FFC0184850E947E16181619061CF41C
:103D4000898190E002C08FEF9FEF0F90DF91CF91BC
:103D50000895FC018485843011F00C945E1680E097
:103D600090E008958F929F92AF92BF92CF92DF9290
:103D7000EF92FF920F931F93CF93DF936C015B0140
:103D80007A01FC01C485C43041F481E090E0F60181
:103D90009383828380E090E054C08A014130584090
:103DA00010F000E018E080E590E00E9407058C2FFD
:103DB00074D24C0163E070E08C2F0E94C804D82FAD
:103DC0000E940605D73111F0DC3121F480169106EE
:103DD00050F302C000E010E080E590E00E9407058B
:103DE0009801A50160E070E08C2FF2D160E270E0F4
:103DF0008C2F85D162E070E08C2F0E94C80484FD76
:103E000014C063E070E08C2F0E94C804811106C0CA
:103E10000E9406058C2F0E94EC16B7CF0E94060563
:103E200080E590E00E940705E5CF40E162E070E0A8
:103E30008C2F0E94BE040E940605012B09F4A5CF19
:103E4000C701DF91CF911F910F91FF90EF90DF900D
:103E5000CF90BF90AF909F908F900895CF92DF92B8
:103E6000FF920F931F93CF93DF93FC01248524309F
:103E700009F070C06A01EB018C01F12C8F2D0E94BA
:103E80000A05811103C0F801F48607C08B7F8831D1
:103E9000D1F3F394F4E0FF12F1CFF801848584307C
:103EA00009F458C020910A0230910B022F5F3F4F56
:103EB00011F420E030EC30930B0220930A02409181
:103EC0000A0250910B0220E061E00E940017F80105
:103ED000F4848A818F3F51F48B818F3F91F48C81E0
:103EE0008F3F79F48D818F3F61F431C0811109C01A
:103EF0008B81811106C08C81811103C08D81882343
:103F000031F1C114D10419F180E590E00E94070558
:103F1000BE016E5F7F4F8F2D0E94FD04B6018F2D75
:103F20000E94EE0464E070E08F2DE9D00E94060547
:103F3000C8010E94F10C873181F061E070E080E0FF
:103F400090E05AD2C8010E94F10C8111F1CF84E0B7
:103F5000F801848780E090E002C081E090E0DF918A
:103F6000CF911F910F91FF90DF90CF900895CF9246
:103F7000DF92EF92FF920F931F93CF93DF93CDB712
:103F8000DEB7AF970FB6F894DEBF0FBECDBF7C0192
:103F90006A0102EC12E01A8309831C861B8688EEF4
:103FA00093E0A0E0B0E08D879E87AF87B88B80E478
:103FB00093E09A878987188F0F8B198E1A8E1B8E24
:103FC0001C8E84E089A31DA30CA31EA21FA218A609
:103FD00019A680912F0690913006A0913106B091DC
:103FE00032068CA79DA7AEA7BFA78B839C83AD830A
:103FF000BE8318861F82AE014C5D5F4FCE010196D5
:104000000E942B1381309105B1F4D701ED91FC9101
:104010000684F785E02D1BA70AA78EA19FA1A8A55E
:10402000B9A58CA79DA7AEA7BFA7A601BE01665DD7
:104030007F4FC7011995AF960FB6F894DEBF0FBE3C
:10404000CDBFDF91CF911F910F91FF90EF90DF9047
:10405000CF90089590E0FC013197E231F10508F02E
:104060004DC08827EC57FF4F8F4FE0C680918000EE
:104070008F7703C0809180008F7D809380000895AA
:1040800080918000877FF9CF84B58F7702C084B597
:104090008F7D84BD08958091B0008F7703C080919B
:1040A000B0008F7D8093B0000895809190008F774D
:1040B00007C0809190008F7D03C080919000877F22
:1040C0008093900008958091A0008F7707C0809121
:1040D000A0008F7D03C08091A000877F8093A00007
:1040E0000895809120018F7707C0809120018F7DF6
:1040F00003C080912001877F809320010895CF9392
:10410000C82F462F61E070E00E94BE0461E070E0BD
:104110008C2F0E94C8048111F9CFCF910895CF93BD
:10412000DF93BC0180E995E00E940F12EC016EEE76
:1041300074E080E995E00E940F128C0F9D1FDF91C3
:10414000CF910895AF92BF92CF92DF92EF92FF92FC
:104150000F931F93CF93DF931F921F92CDB7DEB7BC
:104160007A836983BA01A901E981FA81F770082F7E
:1041700010E0000F111F065D184FD8018D919C9122
:104180008E0F9F1F2E0F3F1F2130384098F07A016D
:104190005B0120E038E06901CE1ADF0AA6010E9427
:1041A000C315A7014C195D09B5016C0D7D1DF80102
:1041B000808191810F900F90DF91CF911F910F918E
:1041C000FF90EF90DF90CF90BF90AF900C94C3150D
:1041D0009F92AF92BF92CF92DF92EF92FF920F9396
:1041E0001F93CF93DF93982E8B015A01690164E2EC
:1041F00070E00E94C804E82EF12C65E270E0892D81
:104200000E94C804FE2CEE24E82AE701C00FD11F4B
:104210009E013770E92CF12CC701880F991FAC0162
:104220004E5D584F7A01FA0180819181820F931F70
:10423000A9014C0D5D1D4130584090F000E018E0A0
:10424000021B130BA801B5010E94ED15A601401B2E
:10425000510BB501600F711FF7018081918102C080
:10426000A601B5010E94ED15CC0DDD1D4D2F64E2B8
:1042700070E0892D0E94BE044C2F65E270E0892D0C
:10428000DF91CF911F910F91FF90EF90DF90CF9032
:10429000BF90AF909F900C94BE04FF920F931F931A
:1042A000CF93DF93F82EC0E0D0E08F2D0E94A415AD
:1042B0008C01892B21F08F2D0E94A415EC01C017D1
:1042C000D10799F7CE01DF91CF911F910F91FF9008
:1042D0000895CF93DF93282F30E0F901E05AFE4F85
:1042E0008491F901E054FE4FD491F901EA5FFD4F4A
:1042F000C491CC2389F08111ADDEEC2FF0E0EE0FFC
:10430000FF1FEA5BFE4FA591B491EC91ED2381E094
:1043100090E021F480E002C080E090E0DF91CF9156
:1043200008951F93CF93DF93282F30E0F901E05ACF
:10433000FE4F8491F901E054FE4FD491F901EA5FF8
:10434000FD4FC491CC23C1F0162F811183DEEC2FD9
:10435000F0E0EE0FFF1FE45DFE4FA591B4918FB723
:10436000F894111105C09C91ED2FE095E92302C04E
:10437000EC91ED2BEC938FBFDF91CF911F910895BE
:10438000CF93DF9390E0FC01E054FE4F2491FC01B9
:10439000EA5FFD4F8491882361F190E0880F991FB7
:1043A000FC01EA55FE4FC591D491FC01E45DFE4F3E
:1043B000A591B491611109C09FB7F89488812095A7
:1043C00082238883EC912E230BC0623061F49FB767
:1043D000F8943881822F809583238883EC912E2B4B
:1043E0002C939FBF06C08FB7F894E8812E2B2883AB
:1043F0008FBFDF91CF9108958F929F92AF92BF921E
:10440000CF92DF92EF92FF926B017C010E94730FBB
:104410004B015C01C114D104E104F104F1F00E94EC
:10442000730FDC01CB0188199909AA09BB09883EE1
:104430009340A105B10570F321E0C21AD108E1084B
:10444000F10888EE880E83E0981EA11CB11CC114EF
:10445000D104E104F10419F7DDCFFF90EF90DF9074
:10446000CF90BF90AF909F908F900895CF92DF92A2
:10447000EF92FF920F931F93CF93DF93CDB7DEB7E9
:10448000C254D1090FB6F894DEBF0FBECDBFFC01F8
:1044900082819381A481B58123968CAF9DAFAEAF0D
:1044A000BFAF239721E023962FAF239723964CADE0
:1044B0005DAD6EAD7FAD23974BAB5CAB6DAB7EABB3
:1044C00089AF9AAFABAFBCAF8DA79EA7AFA7B8AB74
:1044D00028AB4DA55EA56FA578A94FA358A769A7DE
:1044E0007AA72EAB4BA95CA96DA97EA949A35AA3B3
:1044F0006BA37CA38B8F9C8FAD8FBE8F42EC52E061
:104500005C8B4B8B3FEF3D8B3E8B3F8B188E5E87DA
:104510004D872AA7CFA0D8A4E9A4FAA4CF86D88A29
:10452000E98AFA8A2CA309A11AA12BA13CA1098727
:104530001A872B873C875A8349838B839C83AD835F
:10454000BE836CE271E080E090E056DF1FB7F89424
:1045500080913207811123C0EBE3F2E08491E5EF13
:10456000F1E09491E82FF0E0EE0FFF1FEA55FE4FC7
:10457000A591B491EC91E92319F461E085E3D1DED2
:1045800061E085E3FDDE8CB580618CBD8CB5806417
:104590008CBD61E084E3F4DE61E083E3F1DE8091D1
:1045A00032078F5F809332071FBF249A80E590E027
:1045B0000E94070560E880E090E00E94161665E51D
:1045C0008BE190E00E94161665E58AE190E00E947A
:1045D00016160E94060580E090E4909323078093CE
:1045E000220780E090E690932B0780932A0780E0D3
:1045F00098E4909325078093240780E098E69093B1
:104600002D0780932C0780E090E5909327078093F7
:10461000260780E090E790932F0780932E0780E095
:1046200098E5909329078093280780E098E7909376
:1046300031078093300780E590E00E94070546E04F
:1046400050E06CE072E089E090E00E94ED1544E0FB
:1046500050E0BE016D5F7F4F8FE090E00E94ED154E
:1046600044E050E0BE01615F7F4F81E090E00E9436
:10467000ED1544E050E0BE016B5E7F4F85E090E0B9
:104680000E94ED150E94060581E08C8789859A8538
:10469000AB85BC8580932F0690933006A09331069E
:1046A000B0933206CE5BDF4F0FB6F894DEBF0FBE7D
:1046B000CDBFDF91CF911F910F91FF90EF90DF90D1
:1046C000CF9008958BEB96E00E9481178FEC96E0D7
:1046D0000E94980189ED96E00E94980183EE96E091
:1046E0000E9498018DEE96E00E947A178BE596E085
:1046F0000E94571181E696E00E94571187E696E0E6
:104700000E9457118DE696E00E94571183E796E0CC
:104710000E94571189E796E00E9457118FE796E0B3
:104720000C945711AF92BF92CF92DF92EF92FF920B
:104730000F931F93CF93DF9300D000D0CDB7DEB798
:10474000E5E8F6E002EC12E01183008312821382A6
:1047500014821582E0E9F5E01382128288EE93E07C
:10476000A0E0B0E084839583A683B78384E792E0DA
:104770009183808385EC90E09587848784EC90E03A
:104780009787868780EC90E0918B808B81EC90E01E
:10479000938B828B82EC90E0958B848B86EC90E0FF
:1047A000978B868B118E128E138E148EEBE8F6E0AB
:1047B000118300831282138214821582E1E9F6E0EC
:1047C000118300831282138214821582E7E9F6E0D6
:1047D000118300831282138214821582EDE9F6E0C0
:1047E000118300831282138214821582EDE2F6E0B7
:1047F000118300831282138214821582E5E3F6E0AE
:10480000118300831282138214821582E3EAF6E098
:10481000118300831282138214821582E9EAF6E082
:10482000118300831282138214821582EFEAF6E06C
:1048300011830083128213821482158263E874E06C
:104840008FE796E00E949B1167E874E089E796E0A5
:104850000E949B11E9E0F7E011830083128213822A
:10486000148215826BE874E083E796E00E949B1146
:1048700060E974E08DE696E00E949B11E3E0F7E0CA
:104880001183008312821382148215826BE874E014
:1048900087E696E00E949B1160E974E081E696E06D
:1048A0000E949B11E5EBF6E01183008312821382D4
:1048B00014821582EDEFF6E01183008312821382D9
:1048C000148215826BE574E08BE596E00E949B11E3
:1048D000E7EFF6E0118300831282138214821582BF
:1048E000E5E5F6E01183008380EC828388EA838328
:1048F00081E0848381EB8583EBE4F6E02AEB32E010
:10490000318320831582148288E992E09383828325
:1049100040E550E05783468311861086E1E4F6E0D7
:1049200031832083158214829383828380E99FE1FF
:10493000978386831186108664E974E0CE01019620
:104940000E949B114AE050E0BE016F5F7F4F8DEEE9
:1049500096E0A5D8CE0101960E9457116CE974E04B
:10496000CE0101960E949B1121E04BE050E0BE0178
:104970006F5F7F4F83EE96E00E940B08CE01019699
:104980000E94571163EA74E0CE0101960E949B11C8
:1049900021E04CE050E0BE016F5F7F4F89ED96E073
:1049A0000E940B08CE0101960E9457116AEA74E03A
:1049B000CE0101960E949B1121E04DE050E0BE0126
:1049C0006F5F7F4F8FEC96E00E940B08CE0101963F
:1049D0000E94571161EB74E0CE0101960E949B1179
:1049E00088EEA82E83E0B82EC12CD12C98EEE92EAB
:1049F00093E0F92E00E010E020E030E048E050E0E5
:104A0000BE016F5F7F4F8BEB96E07CD8CE010196A5
:104A10000E945711EBE3F6E082EB92E091838083F2
:104A200080E092E09383828385E090E095838483A5
:104A300026960FB6F894DEBF0FBECDBFDF91CF91A3
:104A40001F910F91FF90EF90DF90CF90BF90AF90AC
:104A50000895CF93DF9300D000D0CDB7DEB7789420
:104A600084B5826084BD84B5816084BD85B5826073
:104A700085BD85B5816085BD80916E008160809324
:104A80006E0010928100809181008260809381008D
:104A9000809181008160809381008091800081609D
:104AA000809380008091B10084608093B1008091F8
:104AB000B00081608093B00080919100826080930B
:104AC000910080919100816080939100809190008D
:104AD0008160809390008091A10082608093A1000A
:104AE0008091A10081608093A1008091A0008160ED
:104AF0008093A000809121018260809321018091A8
:104B00002101816080932101809120018160809347
:104B1000200180917A00846080937A0080917A00ED
:104B2000826080937A0080917A00816080937A001D
:104B300080917A00806880937A001092C100E091A1
:104B4000A005F091A10582E08083E0919C05F091A1
:104B50009D051082E0919E05F0919F058FEC80836A
:104B60001092A805E091A405F091A50586E0808348
:104B7000E091A205F091A305808180618083E0919E
:104B8000A205F091A305808188608083E091A20551
:104B9000F091A305808180688083E091A205F09167
:104BA000A30580818F7D808302EC12E01A83098344
:104BB0008091570690915806A0915906B0915A06D7
:104BC0008B839C83AD83BE83CE0101964FDC83E74C
:104BD0009CE190935406809353068DE496E00E94E6
:104BE000E00D86E29CE190934A068093490683E4B7
:104BF00096E00E94E00D60EE74E080E995E00E948E
:104C00000F121A8309831B821C821D821E8280E57B
:104C100090E00E94070544E050E0BE016D5F7F4FC9
:104C20008FE090E00E94C3150E94060560E975E0E0
:104C3000CE0101960E946C126EEE74E080E995E060
:104C40000E940F128BE496E00E94150581E496E025
:104C50000E9415050E94C409F5CF1F93FC019927F6
:104C60008827BC01E89411911032E9F3193010F053
:104C70001E30C8F31B3249F01D3241F4689405C060
:104C800026D0610F711D811D911D119110531A3095
:104C9000B8F33EF490958095709561957F4F8F4F56
:104CA0009F4F1F9108954532510518F4423008F086
:104CB00004C0FB011082CB010895BB274A3031F4B8
:104CC000992322F4BDE2909581959F4F16C0592FEC
:104CD000482F372F262F660F771F881F991F660FC3
:104CE000771F881F991F620F731F841F951F660F00
:104CF000771F881F991F0895BB27FB015527AA27F7
:104D0000880F991FAA1FA41710F0A41B8395505158
:104D1000B9F7A05DAA3308F0A95DA193009779F7D0
:104D2000B111B1931192CB0108C0911116C080321C
:104D300019F089508550D0F70895DC01FC01672FE8
:104D400071917723E1F7329704C07C916D93708362
:104D50006291AE17BF07C8F3089599278827089571
:104D6000052E97FB16F400940FD057FD05D01ED0EA
:104D700007FC02D046F408C0509540953095219527
:104D80003F4F4F4F5F4F0895909580957095619577
:104D90007F4F8F4F9F4F08952BD0A59F900DB49FAD
:104DA000900DA49F800D911D11240895A1E21A2E4B
:104DB000AA1BBB1BFD010DC0AA1FBB1FEE1FFF1FBF
:104DC000A217B307E407F50720F0A21BB30BE40B0F
:104DD000F50B661F771F881F991F1A9469F7609556
:104DE0007095809590959B01AC01BD01CF01089510
:104DF000A29FB001B39FC001A39F700D811D11241C
:104E0000911DB29F700D811D1124911D0895DB012C
:104E10008F939F93C1DFBF91AF91A29F800D911D92
:104E2000A39F900DB29F900D11240895EE0FFF1FC8
:104E3000881F8BBF0790F691E02D1994CF93DF93D5
:104E40008230910510F482E090E0E0913507F09116
:104E5000360720E030E0C0E0D0E0309711F140812B
:104E6000518148175907C0F04817590761F48281EA
:104E70009381209719F09B838A832BC090933607E8
:104E80008093350726C02115310519F042175307C5
:104E900018F49A01BE01DF01EF010280F381E02DD9
:104EA000DCCF2115310509F1281B390B24303105E0
:104EB00090F412968D919C9113976115710521F0D4
:104EC000FB019383828304C0909336078093350758
:104ED000FD01329644C0FD01E20FF31F81939193CF
:104EE000225031092D933C933AC0209133073091E1
:104EF0003407232B41F42091140230911502309392
:104F000034072093330720911202309113022115A8
:104F1000310541F42DB73EB740911602509117026A
:104F2000241B350BE0913307F0913407E217F307A8
:104F3000A0F42E1B3F0B2817390778F0AC014E5F09
:104F40005F4F2417350748F04E0F5F1F509334070B
:104F5000409333078193919302C0E0E0F0E0CF01EA
:104F6000DF91CF9108950F931F93CF93DF93009715
:104F700009F48CC0FC01329713821282009135072C
:104F8000109136070115110581F420813181820FBE
:104F9000931F20913307309134072817390779F58B
:104FA000F0933407E093330771C0D80140E050E03C
:104FB000AE17BF0750F412962D913C911397AD0197
:104FC0002115310509F1D901F3CF9D01DA013383B0
:104FD000228360817181860F971F8217930769F47E
:104FE000EC0128813981260F371F2E5F3F4F318317
:104FF00020838A819B8193838283452B29F4F093BC
:105000003607E093350742C01396FC93EE93129750
:10501000ED01499159919E01240F351FE217F307C5
:1050200071F480819181840F951F029611969C9353
:105030008E938281938113969C938E931297E0E0D6
:10504000F0E0D80112968D919C911397009719F07A
:10505000F8018C01F6CF8D919C9198012E5F3F4F06
:10506000820F931F20913307309134072817390797
:1050700069F4309729F4109236071092350702C070
:10508000138212821093340700933307DF91CF917C
:105090001F910F9108956F927F928F929F92AF927E
:1050A000BF92CF92DF92EF92FF920F931F93CF9315
:1050B000DF93EC01009781F4CB01DF91CF911F9139
:1050C0000F91FF90EF90DF90CF90BF90AF909F90A7
:1050D0008F907F906F90B2CEFC01E60FF71F9C017E
:1050E00022503109E217F30708F4A8C0D9010D9145
:1050F0001C91119706171707A8F00530110508F441
:105100009BC0C80104978617970708F495C0025002
:105110001109061B170B019311936D937C93CF011B
:1051200022DF8AC05B01A01AB10A4C01800E911ED9
:10513000A0913507B091360740E050E0E12CF12C0A
:10514000109709F44AC0A815B905D1F56D907C9067
:105150001197630182E0C80ED11CCA14DB0480F1F0
:10516000A3014A195B096A0182E0C80ED11C12969C
:10517000BC9012971396AC91B5E0CB16D10440F0D9
:10518000B282A38351834083D9016D937C930AC07B
:105190000E5F1F4FC301800F911FF9019183808320
:1051A000EB2DFA2FE114F10431F0D7011396FC93A3
:1051B000EE93129741C0F0933607E09335073CC059
:1051C0008D919C9111974817590708F4AC017D0106
:1051D00012960D90BC91A02DB3CF80913307909182
:1051E000340788159905E1F446175707C8F48091EC
:1051F000120290911302009741F48DB79EB740912F
:10520000160250911702841B950BE817F907B0F4AA
:10521000F0933407E0933307F901718360830CC086
:10522000CB010CDE7C01009749F0A801BE011BD028
:10523000CE0199DEC70104C0CE0102C080E090E03B
:10524000DF91CF911F910F91FF90EF90DF90CF9062
:10525000BF90AF909F908F907F906F90089581E066
:1052600090E0F89433C0FB01DC0102C001900D9284
:1052700041505040D8F70895FB01DC018D91019019
:1052800080190110D9F3990B0895FB01DC010190FD
:105290000D920020E1F70895FB0151915523A9F0EB
:1052A000BF01DC014D9145174111E1F759F4CD01E2
:1052B0000190002049F04D9140154111C9F3FB01C7
:1052C0004111EFCF81E090E00197089511E0C7E22E
:1052D000D1E000E005C0802FFE01A8DD2196011D70
:0E52E000C832D10780E00807B1F7F894FFCF7D
:1052EE00ED06E306D906CF06BB0600C0DEADBEEF67
:1052FE00FEED0000370780000000000000000000F7
:10530E00A90EA90EA90EA90EA90EA90E0000000045
:10531E00A90EA90E491B1D1B6617A90EA90EA90ED3
:10532E00A90EA90E000000009801B601491B1D1B15
:10533E00661777020B025A01BF015C03BA04B00470
:10534E00000000007B01AD01000000005E01A40121
:10535E00000000000C0F4D0E780E520FB809870E8C
:10536E009B0E00000000A90E4D0EFC1DFB1DA90E8C
:10537E00A90EA90E00000000340A710DFC1DFB1DC4
:10538E00E00D00000000A90E4D0EFC1DFB1D0000DF
:10539E0000001405A201000000000106A00100009B
:1053AE0000006C1200000000A90E01005E0000005B
:1053BE0000000000A90EA90EFC1DA90EA90EA90E33
:1053CE00A90EA90EA90EA90EA90EA90EA90E0000CE
:1053DE000000D61DB21EFC1DD51DA91E8F1E681EF7
:1053EE002E1FB71F8B1E231EFF1D550AF81DF61DFF
:1053FE004A0AEC1D00000000A90EA90EFC1DA90E04
:10540E00A90EA90EA90EA90E320AA90EA90EA90E51
:10541E00A90EA90EA90EA90EA90EA90E0000000034
:10542E00FD09830BFC1DFC09130A010BC90AA40C10
:10543E005D0A8F0CB90B1D0CEE0B2A0BE20A2B0A20
:10544E001B0A170A000000008117DA19491B1D1BE1
:10545E006617E618F4174B17E817E319FE194717E6
:10546E00000000007A17D119491B1D1B661754182E
:10547E00881744174E175D01701744696769746188
:10548E006C204F757470757420220022202800291C
:10549E0020697320007B0A006C6162656C3A200003
:1054AE00747970653A20004449474954414C5F4F26
:1054BE0055545055542C0A0070696E3A20006F6E88
:1054CE003A20007D0A00436C69656E7420636F6E2E
:1054DE006E6563746564004E6D5365727665723ADF
:1054EE003A68616E646C65526571756573742829CE
:1054FE003A20556E6B6E6F776E2056657262006342
:10550E006C69656E7420646973636F6E6E65637427
:10551E00656400485454502F312E312000436F6E75
:10552E0074656E742D5479706500436F6E6E65638D
:10553E0074696F6E0052657475726E56616C756526
:10554E00005265667265736800323030204F4B0032
:10555E00746578742F706C61696E00636C6F73651F
:10556E00003A0047455400505554004849474800FA
:10557E004C4F570053776974636831004C616D70FE
:10558E006531004C616D706532004C616D70653334
:10559E000044696D6D657231002F00636F6E666930
:1055AE006775726174696F6E3A205B0A002C005D3C
:1055BE000A00343034204E6F7420466F756E6400CE
:1055CE0073657276657220697320617420000D0A0E
:1055DE00004469676974616C20496E70757420228D
:1055EE0000416E616C6F67204F7574707574202268
:1055FE00004449474954414C5F494E5055542C0A7A
:10560E0000414E414C4F475F4F55545055542C0A54
:10561E000076616C75653A20006D696E3A20006DFA
:10562E0061783A2000343035204D6574686F6420FF
:10563E004E6F7420416C6C6F77656400746578747E
:10564E002F68746D6C003C21444F435459504520D3
:10565E0048544D4C3E0A003C68746D6C3E0A003C4A
:10566E006272202F3E003C2F68746D6C3E0A000063
:00000001FF
